{
  "contractName": "Mint",
  "abi": [
    {
      "inputs": [
        {
          "internalType": "address",
          "name": "collateral",
          "type": "address"
        }
      ],
      "stateMutability": "nonpayable",
      "type": "constructor"
    },
    {
      "anonymous": false,
      "inputs": [
        {
          "indexed": true,
          "internalType": "address",
          "name": "previousOwner",
          "type": "address"
        },
        {
          "indexed": true,
          "internalType": "address",
          "name": "newOwner",
          "type": "address"
        }
      ],
      "name": "OwnershipTransferred",
      "type": "event"
    },
    {
      "inputs": [],
      "name": "collateralToken",
      "outputs": [
        {
          "internalType": "address",
          "name": "",
          "type": "address"
        }
      ],
      "stateMutability": "view",
      "type": "function",
      "constant": true
    },
    {
      "inputs": [],
      "name": "owner",
      "outputs": [
        {
          "internalType": "address",
          "name": "",
          "type": "address"
        }
      ],
      "stateMutability": "view",
      "type": "function",
      "constant": true
    },
    {
      "inputs": [],
      "name": "renounceOwnership",
      "outputs": [],
      "stateMutability": "nonpayable",
      "type": "function"
    },
    {
      "inputs": [
        {
          "internalType": "address",
          "name": "newOwner",
          "type": "address"
        }
      ],
      "name": "transferOwnership",
      "outputs": [],
      "stateMutability": "nonpayable",
      "type": "function"
    },
    {
      "inputs": [
        {
          "internalType": "address",
          "name": "assetToken",
          "type": "address"
        },
        {
          "internalType": "uint256",
          "name": "minCollateralRatio",
          "type": "uint256"
        },
        {
          "internalType": "address",
          "name": "priceFeed",
          "type": "address"
        }
      ],
      "name": "registerAsset",
      "outputs": [],
      "stateMutability": "nonpayable",
      "type": "function"
    },
    {
      "inputs": [
        {
          "internalType": "uint256",
          "name": "positionIndex",
          "type": "uint256"
        }
      ],
      "name": "getPosition",
      "outputs": [
        {
          "internalType": "address",
          "name": "",
          "type": "address"
        },
        {
          "internalType": "uint256",
          "name": "",
          "type": "uint256"
        },
        {
          "internalType": "address",
          "name": "",
          "type": "address"
        },
        {
          "internalType": "uint256",
          "name": "",
          "type": "uint256"
        }
      ],
      "stateMutability": "view",
      "type": "function",
      "constant": true
    },
    {
      "inputs": [
        {
          "internalType": "uint256",
          "name": "collateralAmount",
          "type": "uint256"
        },
        {
          "internalType": "address",
          "name": "assetToken",
          "type": "address"
        },
        {
          "internalType": "uint256",
          "name": "collateralRatio",
          "type": "uint256"
        }
      ],
      "name": "getMintAmount",
      "outputs": [
        {
          "internalType": "uint256",
          "name": "",
          "type": "uint256"
        }
      ],
      "stateMutability": "view",
      "type": "function",
      "constant": true
    },
    {
      "inputs": [
        {
          "internalType": "address",
          "name": "assetToken",
          "type": "address"
        }
      ],
      "name": "checkRegistered",
      "outputs": [
        {
          "internalType": "bool",
          "name": "",
          "type": "bool"
        }
      ],
      "stateMutability": "view",
      "type": "function",
      "constant": true
    },
    {
      "inputs": [
        {
          "internalType": "uint256",
          "name": "collateralAmount",
          "type": "uint256"
        },
        {
          "internalType": "address",
          "name": "assetToken",
          "type": "address"
        },
        {
          "internalType": "uint256",
          "name": "collateralRatio",
          "type": "uint256"
        }
      ],
      "name": "openPosition",
      "outputs": [],
      "stateMutability": "nonpayable",
      "type": "function"
    },
    {
      "inputs": [
        {
          "internalType": "uint256",
          "name": "positionIndex",
          "type": "uint256"
        }
      ],
      "name": "closePosition",
      "outputs": [],
      "stateMutability": "nonpayable",
      "type": "function"
    },
    {
      "inputs": [
        {
          "internalType": "uint256",
          "name": "positionIndex",
          "type": "uint256"
        },
        {
          "internalType": "uint256",
          "name": "collateralAmount",
          "type": "uint256"
        }
      ],
      "name": "deposit",
      "outputs": [],
      "stateMutability": "nonpayable",
      "type": "function"
    },
    {
      "inputs": [
        {
          "internalType": "uint256",
          "name": "positionIndex",
          "type": "uint256"
        },
        {
          "internalType": "uint256",
          "name": "withdrawAmount",
          "type": "uint256"
        }
      ],
      "name": "withdraw",
      "outputs": [],
      "stateMutability": "nonpayable",
      "type": "function"
    },
    {
      "inputs": [
        {
          "internalType": "uint256",
          "name": "positionIndex",
          "type": "uint256"
        },
        {
          "internalType": "uint256",
          "name": "mintAmount",
          "type": "uint256"
        }
      ],
      "name": "mint",
      "outputs": [],
      "stateMutability": "nonpayable",
      "type": "function"
    },
    {
      "inputs": [
        {
          "internalType": "uint256",
          "name": "positionIndex",
          "type": "uint256"
        },
        {
          "internalType": "uint256",
          "name": "burnAmount",
          "type": "uint256"
        }
      ],
      "name": "burn",
      "outputs": [],
      "stateMutability": "nonpayable",
      "type": "function"
    }
  ],
  "bytecode": "0x60806040523480156200001157600080fd5b5060405162002f1c38038062002f1c833981810160405281019062000037919062000182565b620000576200004b6200009f60201b60201c565b620000a760201b60201c565b80600460006101000a81548173ffffffffffffffffffffffffffffffffffffffff021916908373ffffffffffffffffffffffffffffffffffffffff1602179055505062000207565b600033905090565b60008060009054906101000a900473ffffffffffffffffffffffffffffffffffffffff169050816000806101000a81548173ffffffffffffffffffffffffffffffffffffffff021916908373ffffffffffffffffffffffffffffffffffffffff1602179055508173ffffffffffffffffffffffffffffffffffffffff168173ffffffffffffffffffffffffffffffffffffffff167f8be0079c531659141344cd1fd0a4f28419497f9722a3daafe3b4186f6b6457e060405160405180910390a35050565b6000815190506200017c81620001ed565b92915050565b6000602082840312156200019b576200019a620001e8565b5b6000620001ab848285016200016b565b91505092915050565b6000620001c182620001c8565b9050919050565b600073ffffffffffffffffffffffffffffffffffffffff82169050919050565b600080fd5b620001f881620001b4565b81146200020457600080fd5b50565b612d0580620002176000396000f3fe608060405234801561001057600080fd5b50600436106100ea5760003560e01c8063b2016bd41161008c578063e2bbb15811610066578063e2bbb1581461020d578063eb02c30114610229578063ee2574af1461025c578063f2fde38b1461028c576100ea565b8063b2016bd4146101b7578063b390c0ab146101d5578063df8665d7146101f1576100ea565b80634846cd9d116100c85780634846cd9d14610143578063715018a6146101735780638da5cb5b1461017d578063a126d6011461019b576100ea565b8063064526bb146100ef5780631b2ef1ca1461010b578063441a3e7014610127575b600080fd5b61010960048036038101906101049190611f0e565b6102a8565b005b6101256004803603810190610120919061204e565b6105cf565b005b610141600480360381019061013c919061204e565b6108da565b005b61015d60048036038101906101589190611ffb565b610c65565b60405161016a919061256d565b60405180910390f35b61017b610e14565b005b610185610e9c565b60405161019291906122d2565b60405180910390f35b6101b560048036038101906101b09190611fce565b610ec5565b005b6101bf61122d565b6040516101cc91906122d2565b60405180910390f35b6101ef60048036038101906101ea919061204e565b611253565b005b61020b60048036038101906102069190611ffb565b6114ef565b005b6102276004803603810190610222919061204e565b6118a0565b005b610243600480360381019061023e9190611fce565b611b40565b604051610253949392919061234d565b60405180910390f35b61027660048036038101906102719190611ee1565b611c05565b6040516102839190612392565b60405180910390f35b6102a660048036038101906102a19190611ee1565b611c9f565b005b6102b0611d97565b73ffffffffffffffffffffffffffffffffffffffff166102ce610e9c565b73ffffffffffffffffffffffffffffffffffffffff1614610324576040517f08c379a000000000000000000000000000000000000000000000000000000000815260040161031b9061244d565b60405180910390fd5b600073ffffffffffffffffffffffffffffffffffffffff168373ffffffffffffffffffffffffffffffffffffffff161415610394576040517f08c379a000000000000000000000000000000000000000000000000000000000815260040161038b906124ad565b60405180910390fd5b60018210156103d8576040517f08c379a00000000000000000000000000000000000000000000000000000000081526004016103cf9061254d565b60405180910390fd5b600073ffffffffffffffffffffffffffffffffffffffff16600160008573ffffffffffffffffffffffffffffffffffffffff1673ffffffffffffffffffffffffffffffffffffffff16815260200190815260200160002060000160009054906101000a900473ffffffffffffffffffffffffffffffffffffffff1673ffffffffffffffffffffffffffffffffffffffff16146104a9576040517f08c379a00000000000000000000000000000000000000000000000000000000081526004016104a0906123ad565b60405180910390fd5b60405180606001604052808473ffffffffffffffffffffffffffffffffffffffff1681526020018381526020018273ffffffffffffffffffffffffffffffffffffffff16815250600160008573ffffffffffffffffffffffffffffffffffffffff1673ffffffffffffffffffffffffffffffffffffffff16815260200190815260200160002060008201518160000160006101000a81548173ffffffffffffffffffffffffffffffffffffffff021916908373ffffffffffffffffffffffffffffffffffffffff1602179055506020820151816001015560408201518160020160006101000a81548173ffffffffffffffffffffffffffffffffffffffff021916908373ffffffffffffffffffffffffffffffffffffffff160217905550905050505050565b6105d7611d97565b73ffffffffffffffffffffffffffffffffffffffff166105f5610e9c565b73ffffffffffffffffffffffffffffffffffffffff161461064b576040517f08c379a00000000000000000000000000000000000000000000000000000000081526004016106429061244d565b60405180910390fd5b600254821061068f576040517f08c379a00000000000000000000000000000000000000000000000000000000081526004016106869061240d565b60405180910390fd5b6003600083815260200190815260200160002060010160009054906101000a900473ffffffffffffffffffffffffffffffffffffffff1673ffffffffffffffffffffffffffffffffffffffff163373ffffffffffffffffffffffffffffffffffffffff1614610733576040517f08c379a000000000000000000000000000000000000000000000000000000000815260040161072a9061248d565b60405180910390fd5b60008160036000858152602001908152602001600020600401546107579190612599565b90506000600360008581526020019081526020016000206002015490506000828261078291906125ef565b905060006003600087815260200190815260200160002060030160009054906101000a900473ffffffffffffffffffffffffffffffffffffffff1690506000600160008373ffffffffffffffffffffffffffffffffffffffff1673ffffffffffffffffffffffffffffffffffffffff16815260200190815260200160002060010154905080831015610849576040517f08c379a00000000000000000000000000000000000000000000000000000000081526004016108409061246d565b60405180910390fd5b8173ffffffffffffffffffffffffffffffffffffffff166340c10f1933886040518363ffffffff1660e01b8152600401610884929190612324565b600060405180830381600087803b15801561089e57600080fd5b505af11580156108b2573d6000803e3d6000fd5b5050505084600360008981526020019081526020016000206004018190555050505050505050565b6108e2611d97565b73ffffffffffffffffffffffffffffffffffffffff16610900610e9c565b73ffffffffffffffffffffffffffffffffffffffff1614610956576040517f08c379a000000000000000000000000000000000000000000000000000000000815260040161094d9061244d565b60405180910390fd5b600254821061099a576040517f08c379a00000000000000000000000000000000000000000000000000000000081526004016109919061240d565b60405180910390fd5b6003600083815260200190815260200160002060010160009054906101000a900473ffffffffffffffffffffffffffffffffffffffff1673ffffffffffffffffffffffffffffffffffffffff163373ffffffffffffffffffffffffffffffffffffffff1614610a3e576040517f08c379a0000000000000000000000000000000000000000000000000000000008152600401610a359061248d565b60405180910390fd5b60006003600084815260200190815260200160002060020154905081811015610a9c576040517f08c379a0000000000000000000000000000000000000000000000000000000008152600401610a93906124ed565b60405180910390fd5b60008282610aaa91906127eb565b90506000600360008681526020019081526020016000206004015482610ad091906125ef565b90506000600160006003600089815260200190815260200160002060030160009054906101000a900473ffffffffffffffffffffffffffffffffffffffff1673ffffffffffffffffffffffffffffffffffffffff1673ffffffffffffffffffffffffffffffffffffffff16815260200190815260200160002060010154905080821015610b92576040517f08c379a0000000000000000000000000000000000000000000000000000000008152600401610b899061246d565b60405180910390fd5b600460009054906101000a900473ffffffffffffffffffffffffffffffffffffffff1673ffffffffffffffffffffffffffffffffffffffff1663a9059cbb33876040518363ffffffff1660e01b8152600401610bef929190612324565b602060405180830381600087803b158015610c0957600080fd5b505af1158015610c1d573d6000803e3d6000fd5b505050506040513d601f19601f82011682018060405250810190610c419190611f61565b50826003600088815260200190815260200160002060020181905550505050505050565b600080600160008573ffffffffffffffffffffffffffffffffffffffff1673ffffffffffffffffffffffffffffffffffffffff168152602001908152602001600020905060008160020160009054906101000a900473ffffffffffffffffffffffffffffffffffffffff1673ffffffffffffffffffffffffffffffffffffffff16638e15f4736040518163ffffffff1660e01b8152600401604080518083038186803b158015610d1457600080fd5b505afa158015610d28573d6000803e3d6000fd5b505050506040513d601f19601f82011682018060405250810190610d4c9190611f8e565b50905060008573ffffffffffffffffffffffffffffffffffffffff1663313ce5676040518163ffffffff1660e01b815260040160206040518083038186803b158015610d9757600080fd5b505afa158015610dab573d6000803e3d6000fd5b505050506040513d601f19601f82011682018060405250810190610dcf919061208e565b9050600085838360ff16600a610de59190612673565b8a610df09190612791565b610dfa91906125ef565b610e0491906125ef565b9050809450505050509392505050565b610e1c611d97565b73ffffffffffffffffffffffffffffffffffffffff16610e3a610e9c565b73ffffffffffffffffffffffffffffffffffffffff1614610e90576040517f08c379a0000000000000000000000000000000000000000000000000000000008152600401610e879061244d565b60405180910390fd5b610e9a6000611d9f565b565b60008060009054906101000a900473ffffffffffffffffffffffffffffffffffffffff16905090565b610ecd611d97565b73ffffffffffffffffffffffffffffffffffffffff16610eeb610e9c565b73ffffffffffffffffffffffffffffffffffffffff1614610f41576040517f08c379a0000000000000000000000000000000000000000000000000000000008152600401610f389061244d565b60405180910390fd5b6002548110610f85576040517f08c379a0000000000000000000000000000000000000000000000000000000008152600401610f7c9061240d565b60405180910390fd5b6003600082815260200190815260200160002060010160009054906101000a900473ffffffffffffffffffffffffffffffffffffffff1673ffffffffffffffffffffffffffffffffffffffff163373ffffffffffffffffffffffffffffffffffffffff1614611029576040517f08c379a0000000000000000000000000000000000000000000000000000000008152600401611020906124cd565b60405180910390fd5b60006003600083815260200190815260200160002090508060030160009054906101000a900473ffffffffffffffffffffffffffffffffffffffff1673ffffffffffffffffffffffffffffffffffffffff16639dc29fac8260010160009054906101000a900473ffffffffffffffffffffffffffffffffffffffff1683600401546040518363ffffffff1660e01b81526004016110c7929190612324565b600060405180830381600087803b1580156110e157600080fd5b505af11580156110f5573d6000803e3d6000fd5b50505050600460009054906101000a900473ffffffffffffffffffffffffffffffffffffffff1673ffffffffffffffffffffffffffffffffffffffff1663a9059cbb3383600201546040518363ffffffff1660e01b815260040161115a929190612324565b602060405180830381600087803b15801561117457600080fd5b505af1158015611188573d6000803e3d6000fd5b505050506040513d601f19601f820116820180604052508101906111ac9190611f61565b50600360008381526020019081526020016000206000808201600090556001820160006101000a81549073ffffffffffffffffffffffffffffffffffffffff021916905560028201600090556003820160006101000a81549073ffffffffffffffffffffffffffffffffffffffff0219169055600482016000905550505050565b600460009054906101000a900473ffffffffffffffffffffffffffffffffffffffff1681565b61125b611d97565b73ffffffffffffffffffffffffffffffffffffffff16611279610e9c565b73ffffffffffffffffffffffffffffffffffffffff16146112cf576040517f08c379a00000000000000000000000000000000000000000000000000000000081526004016112c69061244d565b60405180910390fd5b6002548210611313576040517f08c379a000000000000000000000000000000000000000000000000000000000815260040161130a9061240d565b60405180910390fd5b6003600083815260200190815260200160002060010160009054906101000a900473ffffffffffffffffffffffffffffffffffffffff1673ffffffffffffffffffffffffffffffffffffffff163373ffffffffffffffffffffffffffffffffffffffff16146113b7576040517f08c379a00000000000000000000000000000000000000000000000000000000081526004016113ae9061248d565b60405180910390fd5b60006003600084815260200190815260200160002060040154905080821115611415576040517f08c379a000000000000000000000000000000000000000000000000000000000815260040161140c9061242d565b60405180910390fd5b60006003600085815260200190815260200160002060030160009054906101000a900473ffffffffffffffffffffffffffffffffffffffff1690506000838361145e91906127eb565b90508173ffffffffffffffffffffffffffffffffffffffff16639dc29fac33866040518363ffffffff1660e01b815260040161149b929190612324565b600060405180830381600087803b1580156114b557600080fd5b505af11580156114c9573d6000803e3d6000fd5b505050508060036000878152602001908152602001600020600401819055505050505050565b6114f7611d97565b73ffffffffffffffffffffffffffffffffffffffff16611515610e9c565b73ffffffffffffffffffffffffffffffffffffffff161461156b576040517f08c379a00000000000000000000000000000000000000000000000000000000081526004016115629061244d565b60405180910390fd5b61157482611c05565b6115b3576040517f08c379a00000000000000000000000000000000000000000000000000000000081526004016115aa9061252d565b60405180910390fd5b6000600160008473ffffffffffffffffffffffffffffffffffffffff1673ffffffffffffffffffffffffffffffffffffffff1681526020019081526020016000209050806001015482101561163d576040517f08c379a0000000000000000000000000000000000000000000000000000000008152600401611634906123ed565b60405180910390fd5b600061164a858585610c65565b90506040518060a0016040528060025481526020013373ffffffffffffffffffffffffffffffffffffffff1681526020018681526020018573ffffffffffffffffffffffffffffffffffffffff168152602001828152506003600060025481526020019081526020016000206000820151816000015560208201518160010160006101000a81548173ffffffffffffffffffffffffffffffffffffffff021916908373ffffffffffffffffffffffffffffffffffffffff1602179055506040820151816002015560608201518160030160006101000a81548173ffffffffffffffffffffffffffffffffffffffff021916908373ffffffffffffffffffffffffffffffffffffffff1602179055506080820151816004015590505060016002546117749190612599565b600281905550600460009054906101000a900473ffffffffffffffffffffffffffffffffffffffff1673ffffffffffffffffffffffffffffffffffffffff166323b872dd3330886040518463ffffffff1660e01b81526004016117d9939291906122ed565b602060405180830381600087803b1580156117f357600080fd5b505af1158015611807573d6000803e3d6000fd5b505050506040513d601f19601f8201168201806040525081019061182b9190611f61565b508373ffffffffffffffffffffffffffffffffffffffff166340c10f1933836040518363ffffffff1660e01b8152600401611867929190612324565b600060405180830381600087803b15801561188157600080fd5b505af1158015611895573d6000803e3d6000fd5b505050505050505050565b6118a8611d97565b73ffffffffffffffffffffffffffffffffffffffff166118c6610e9c565b73ffffffffffffffffffffffffffffffffffffffff161461191c576040517f08c379a00000000000000000000000000000000000000000000000000000000081526004016119139061244d565b60405180910390fd5b6002548210611960576040517f08c379a00000000000000000000000000000000000000000000000000000000081526004016119579061240d565b60405180910390fd5b6003600083815260200190815260200160002060010160009054906101000a900473ffffffffffffffffffffffffffffffffffffffff1673ffffffffffffffffffffffffffffffffffffffff163373ffffffffffffffffffffffffffffffffffffffff1614611a04576040517f08c379a00000000000000000000000000000000000000000000000000000000081526004016119fb9061248d565b60405180910390fd5b6000811015611a48576040517f08c379a0000000000000000000000000000000000000000000000000000000008152600401611a3f9061250d565b60405180910390fd5b600460009054906101000a900473ffffffffffffffffffffffffffffffffffffffff1673ffffffffffffffffffffffffffffffffffffffff166323b872dd3330846040518463ffffffff1660e01b8152600401611aa7939291906122ed565b602060405180830381600087803b158015611ac157600080fd5b505af1158015611ad5573d6000803e3d6000fd5b505050506040513d601f19601f82011682018060405250810190611af99190611f61565b506000600360008481526020019081526020016000206002015490508181611b219190612599565b6003600085815260200190815260200160002060020181905550505050565b6000806000806002548510611b8a576040517f08c379a0000000000000000000000000000000000000000000000000000000008152600401611b819061240d565b60405180910390fd5b60006003600087815260200190815260200160002090508060010160009054906101000a900473ffffffffffffffffffffffffffffffffffffffff1681600201548260030160009054906101000a900473ffffffffffffffffffffffffffffffffffffffff1683600401549450945094509450509193509193565b60008173ffffffffffffffffffffffffffffffffffffffff16600160008473ffffffffffffffffffffffffffffffffffffffff1673ffffffffffffffffffffffffffffffffffffffff16815260200190815260200160002060000160009054906101000a900473ffffffffffffffffffffffffffffffffffffffff1673ffffffffffffffffffffffffffffffffffffffff16149050919050565b611ca7611d97565b73ffffffffffffffffffffffffffffffffffffffff16611cc5610e9c565b73ffffffffffffffffffffffffffffffffffffffff1614611d1b576040517f08c379a0000000000000000000000000000000000000000000000000000000008152600401611d129061244d565b60405180910390fd5b600073ffffffffffffffffffffffffffffffffffffffff168173ffffffffffffffffffffffffffffffffffffffff161415611d8b576040517f08c379a0000000000000000000000000000000000000000000000000000000008152600401611d82906123cd565b60405180910390fd5b611d9481611d9f565b50565b600033905090565b60008060009054906101000a900473ffffffffffffffffffffffffffffffffffffffff169050816000806101000a81548173ffffffffffffffffffffffffffffffffffffffff021916908373ffffffffffffffffffffffffffffffffffffffff1602179055508173ffffffffffffffffffffffffffffffffffffffff168173ffffffffffffffffffffffffffffffffffffffff167f8be0079c531659141344cd1fd0a4f28419497f9722a3daafe3b4186f6b6457e060405160405180910390a35050565b600081359050611e7281612c5c565b92915050565b600081519050611e8781612c73565b92915050565b600081519050611e9c81612c8a565b92915050565b600081359050611eb181612ca1565b92915050565b600081519050611ec681612ca1565b92915050565b600081519050611edb81612cb8565b92915050565b600060208284031215611ef757611ef66128dc565b5b6000611f0584828501611e63565b91505092915050565b600080600060608486031215611f2757611f266128dc565b5b6000611f3586828701611e63565b9350506020611f4686828701611ea2565b9250506040611f5786828701611e63565b9150509250925092565b600060208284031215611f7757611f766128dc565b5b6000611f8584828501611e78565b91505092915050565b60008060408385031215611fa557611fa46128dc565b5b6000611fb385828601611e8d565b9250506020611fc485828601611eb7565b9150509250929050565b600060208284031215611fe457611fe36128dc565b5b6000611ff284828501611ea2565b91505092915050565b600080600060608486031215612014576120136128dc565b5b600061202286828701611ea2565b935050602061203386828701611e63565b925050604061204486828701611ea2565b9150509250925092565b60008060408385031215612065576120646128dc565b5b600061207385828601611ea2565b925050602061208485828601611ea2565b9150509250929050565b6000602082840312156120a4576120a36128dc565b5b60006120b284828501611ecc565b91505092915050565b6120c48161281f565b82525050565b6120d381612831565b82525050565b60006120e6601c83612588565b91506120f1826128ee565b602082019050919050565b6000612109602683612588565b915061211482612917565b604082019050919050565b600061212c601883612588565b915061213782612966565b602082019050919050565b600061214f600d83612588565b915061215a8261298f565b602082019050919050565b6000612172602e83612588565b915061217d826129b8565b604082019050919050565b6000612195602083612588565b91506121a082612a07565b602082019050919050565b60006121b8602883612588565b91506121c382612a30565b604082019050919050565b60006121db602383612588565b91506121e682612a7f565b604082019050919050565b60006121fe601a83612588565b915061220982612ace565b602082019050919050565b6000612221601083612588565b915061222c82612af7565b602082019050919050565b6000612244604283612588565b915061224f82612b20565b606082019050919050565b6000612267602a83612588565b915061227282612b95565b604082019050919050565b600061228a601383612588565b915061229582612be4565b602082019050919050565b60006122ad602c83612588565b91506122b882612c0d565b604082019050919050565b6122cc81612867565b82525050565b60006020820190506122e760008301846120bb565b92915050565b600060608201905061230260008301866120bb565b61230f60208301856120bb565b61231c60408301846122c3565b949350505050565b600060408201905061233960008301856120bb565b61234660208301846122c3565b9392505050565b600060808201905061236260008301876120bb565b61236f60208301866122c3565b61237c60408301856120bb565b61238960608301846122c3565b95945050505050565b60006020820190506123a760008301846120ca565b92915050565b600060208201905081810360008301526123c6816120d9565b9050919050565b600060208201905081810360008301526123e6816120fc565b9050919050565b600060208201905081810360008301526124068161211f565b9050919050565b6000602082019050818103600083015261242681612142565b9050919050565b6000602082019050818103600083015261244681612165565b9050919050565b6000602082019050818103600083015261246681612188565b9050919050565b60006020820190508181036000830152612486816121ab565b9050919050565b600060208201905081810360008301526124a6816121ce565b9050919050565b600060208201905081810360008301526124c6816121f1565b9050919050565b600060208201905081810360008301526124e681612214565b9050919050565b6000602082019050818103600083015261250681612237565b9050919050565b600060208201905081810360008301526125268161225a565b9050919050565b600060208201905081810360008301526125468161227d565b9050919050565b60006020820190508181036000830152612566816122a0565b9050919050565b600060208201905061258260008301846122c3565b92915050565b600082825260208201905092915050565b60006125a482612867565b91506125af83612867565b9250827fffffffffffffffffffffffffffffffffffffffffffffffffffffffffffffffff038211156125e4576125e361287e565b5b828201905092915050565b60006125fa82612867565b915061260583612867565b925082612615576126146128ad565b5b828204905092915050565b6000808291508390505b600185111561266a578086048111156126465761264561287e565b5b60018516156126555780820291505b8081029050612663856128e1565b945061262a565b94509492505050565b600061267e82612867565b915061268983612867565b92506126b67fffffffffffffffffffffffffffffffffffffffffffffffffffffffffffffffff84846126be565b905092915050565b6000826126ce576001905061278a565b816126dc576000905061278a565b81600181146126f257600281146126fc5761272b565b600191505061278a565b60ff84111561270e5761270d61287e565b5b8360020a9150848211156127255761272461287e565b5b5061278a565b5060208310610133831016604e8410600b84101617156127605782820a90508381111561275b5761275a61287e565b5b61278a565b61276d8484846001612620565b925090508184048111156127845761278361287e565b5b81810290505b9392505050565b600061279c82612867565b91506127a783612867565b9250817fffffffffffffffffffffffffffffffffffffffffffffffffffffffffffffffff04831182151516156127e0576127df61287e565b5b828202905092915050565b60006127f682612867565b915061280183612867565b9250828210156128145761281361287e565b5b828203905092915050565b600061282a82612847565b9050919050565b60008115159050919050565b6000819050919050565b600073ffffffffffffffffffffffffffffffffffffffff82169050919050565b6000819050919050565b600060ff82169050919050565b7f4e487b7100000000000000000000000000000000000000000000000000000000600052601160045260246000fd5b7f4e487b7100000000000000000000000000000000000000000000000000000000600052601260045260246000fd5b600080fd5b60008160011c9050919050565b7f41737365742077617320616c7265616479207265676973746572656400000000600082015250565b7f4f776e61626c653a206e6577206f776e657220697320746865207a65726f206160008201527f6464726573730000000000000000000000000000000000000000000000000000602082015250565b7f6d7573742062652067726561746572207468616e204d43520000000000000000600082015250565b7f496e76616c696420696e64657800000000000000000000000000000000000000600082015250565b7f6275726e416d6f756e74206d75737420626520736d616c6c6572207468616e2060008201527f63757272656e7420616d6f756e74000000000000000000000000000000000000602082015250565b7f4f776e61626c653a2063616c6c6572206973206e6f7420746865206f776e6572600082015250565b7f63757272656e74204d4352206d7573742062652067726561746572207468616e60008201527f206d696e204d4352000000000000000000000000000000000000000000000000602082015250565b7f4f6e6c7920746865206f776e65722063616e20636c6f7365206120706f73697460008201527f696f6e0000000000000000000000000000000000000000000000000000000000602082015250565b7f496e76616c6964206173736574546f6b656e2061646472657373000000000000600082015250565b7f696e7661696c6420706f736974696f6e00000000000000000000000000000000600082015250565b7f6f776e65722773206f776e65725f636f6c6c61746572616c416d6f756e74206d60008201527f7573742062652067726561746572207468616e207769746864726177416d6f7560208201527f6e74000000000000000000000000000000000000000000000000000000000000604082015250565b7f636f6c6c61746572616c416d6f756e74206d757374206265206772656174657260008201527f207468616e207a65726f00000000000000000000000000000000000000000000602082015250565b7f6173736574206973207265676973746572656400000000000000000000000000600082015250565b7f6d696e436f6c6c61746572616c526174696f206d75737420626520677265617460008201527f6572207468616e20313030250000000000000000000000000000000000000000602082015250565b612c658161281f565b8114612c7057600080fd5b50565b612c7c81612831565b8114612c8757600080fd5b50565b612c938161283d565b8114612c9e57600080fd5b50565b612caa81612867565b8114612cb557600080fd5b50565b612cc181612871565b8114612ccc57600080fd5b5056fea2646970667358221220e7fbe4acd941843bd84c6db0d972f85b7f88c75f7a7c5cc5665564e82430c85b64736f6c63430008070033",
  "immutableReferences": {},
  "source": "// SPDX-License-Identifier: MIT\npragma solidity >=0.8.0 <0.9.0;\n\nimport \"@openzeppelin/contracts/access/Ownable.sol\";\nimport \"./interfaces/IPriceFeed.sol\";\nimport \"./interfaces/IMint.sol\";\nimport \"./sAsset.sol\";\nimport \"./EUSD.sol\";\n\ncontract Mint is Ownable, IMint{\n\n    struct Asset {\n        address token;\n        uint minCollateralRatio;\n        address priceFeed;\n    }\n\n    struct Position {\n        uint idx;\n        address owner;\n        uint collateralAmount;\n        address assetToken;\n        uint assetAmount;\n    }\n\n    mapping(address => Asset) _assetMap;\n    uint _currentPositionIndex;\n    mapping(uint => Position) _idxPositionMap;\n    address public collateralToken;\n    \n\n    constructor(address collateral) {\n        collateralToken = collateral;\n    }\n\n    function registerAsset(address assetToken, uint minCollateralRatio, address priceFeed) external override onlyOwner {\n        require(assetToken != address(0), \"Invalid assetToken address\");\n        require(minCollateralRatio >= 1, \"minCollateralRatio must be greater than 100%\");\n        require(_assetMap[assetToken].token == address(0), \"Asset was already registered\");\n        \n        _assetMap[assetToken] = Asset(assetToken, minCollateralRatio, priceFeed);\n    }\n\n    function getPosition(uint positionIndex) external view returns (address, uint, address, uint) {\n        require(positionIndex < _currentPositionIndex, \"Invalid index\");\n        Position storage position = _idxPositionMap[positionIndex];\n        return (position.owner, position.collateralAmount, position.assetToken, position.assetAmount);\n    }\n\n    function getMintAmount(uint collateralAmount, address assetToken, uint collateralRatio) public view returns (uint) {\n        Asset storage asset = _assetMap[assetToken];\n        (int relativeAssetPrice, ) = IPriceFeed(asset.priceFeed).getLatestPrice();\n        uint8 decimal = sAsset(assetToken).decimals();\n        uint mintAmount = collateralAmount * (10 ** uint256(decimal)) / uint(relativeAssetPrice) / collateralRatio ;\n        return mintAmount;\n    }\n\n    function checkRegistered(address assetToken) public view returns (bool) {\n        return _assetMap[assetToken].token == assetToken;\n    }\n\n    /* TODO: implement your functions here */\n    \n    function openPosition(uint collateralAmount, address assetToken, uint collateralRatio) external override onlyOwner{\n        require(checkRegistered(assetToken), \"asset is registered\");\n        Asset storage asset = _assetMap[assetToken];\n        require(collateralRatio >= asset.minCollateralRatio, \"must be greater than MCR\");\n        uint assetAmount = getMintAmount(collateralAmount, assetToken, collateralRatio);\n        _idxPositionMap[_currentPositionIndex] = Position(_currentPositionIndex, msg.sender, collateralAmount, assetToken, assetAmount);\n        _currentPositionIndex = _currentPositionIndex + 1;\n        EUSD(collateralToken).transferFrom(msg.sender, address(this), collateralAmount);\n        sAsset(assetToken).mint(msg.sender, assetAmount);\n    }\n    \n    function closePosition(uint positionIndex) external override onlyOwner{\n        require(positionIndex < _currentPositionIndex, \"Invalid index\");\n        require(msg.sender == _idxPositionMap[positionIndex].owner, \"invaild position\");\n        Position storage position = _idxPositionMap[positionIndex];\n        sAsset(position.assetToken).burn(position.owner,position.assetAmount);\n        EUSD(collateralToken).transfer(msg.sender, position.collateralAmount);\n        delete(_idxPositionMap[positionIndex]);\n    }\n\n    function deposit(uint positionIndex, uint collateralAmount) external override onlyOwner{\n        require(positionIndex < _currentPositionIndex, \"Invalid index\");\n        require(msg.sender == _idxPositionMap[positionIndex].owner, \"Only the owner can close a position\");\n        require(collateralAmount >= 0, \"collateralAmount must be greater than zero\");\n        //address owner_addr = _idxPositionMap[positionIndex].owner;\n        //uint owner_balance = EUSD(collateralToken).balanceOf(owner_addr);\n        // require(owner_balance >= collateralAmount, \"balance of owner must be greater than collateralAmount\");\n        EUSD(collateralToken).transferFrom(msg.sender, address(this), collateralAmount);\n        uint current_collateralAmount = _idxPositionMap[positionIndex].collateralAmount;\n        _idxPositionMap[positionIndex].collateralAmount = current_collateralAmount + collateralAmount;\n    }\n\n    function withdraw(uint positionIndex, uint withdrawAmount) external override onlyOwner{\n        require(positionIndex < _currentPositionIndex, \"Invalid index\");\n        require(msg.sender == _idxPositionMap[positionIndex].owner, \"Only the owner can close a position\");\n        uint owner_collateralAmount = _idxPositionMap[positionIndex].collateralAmount;\n        require(owner_collateralAmount >= withdrawAmount, \"owner's owner_collateralAmount must be greater than withdrawAmount\");\n        uint new_collateralAmount = owner_collateralAmount - withdrawAmount;\n        uint current_ratio = new_collateralAmount / _idxPositionMap[positionIndex].assetAmount;\n        uint min_ratio = _assetMap[_idxPositionMap[positionIndex].assetToken].minCollateralRatio;\n        require(current_ratio >= min_ratio, \"current MCR must be greater than min MCR\");\n        EUSD(collateralToken).transfer(msg.sender, withdrawAmount);\n        _idxPositionMap[positionIndex].collateralAmount = new_collateralAmount;\n    }\n\n    function mint(uint positionIndex, uint mintAmount) external override onlyOwner{        \n        // uint owner_collateralAmount = _idxPositionMap[positionIndex].collateralAmount;\n        // require(owner_collateralAmount >= mintAmount, \"owner's owner_collateralAmount must be greater than mintAmount\");\n        // address cur_asset_token = ;\n        // uint min_ratio = _assetMap[cur_asset_token].minCollateralRatio;\n        // uint new_collateralAmount = owner_collateralAmount - mintAmount;\n        // //uint new_assertAmount = _idxPositionMap[positionIndex].assetAmount + mintAmount / min_ratio;\n        // uint new_assertAmount = getMintAmount(mintAmount, cur_asset_token, min_ratio);\n        // require(new_collateralAmount / new_assertAmount >= min_ratio, \"current MCR must be greater than min MCR\");\n        // _idxPositionMap[positionIndex].collateralAmount = new_collateralAmount;\n        // _idxPositionMap[positionIndex].assetAmount = new_assertAmount;\n        require(positionIndex < _currentPositionIndex, \"Invalid index\");\n        require(msg.sender == _idxPositionMap[positionIndex].owner, \"Only the owner can close a position\");\n        uint new_amount = _idxPositionMap[positionIndex].assetAmount + mintAmount;\n        uint curr_collateralAmount = _idxPositionMap[positionIndex].collateralAmount;\n        uint curr_ratio =  curr_collateralAmount/new_amount;\n        address curr_asset_token = _idxPositionMap[positionIndex].assetToken;\n        uint min_ratio = _assetMap[curr_asset_token].minCollateralRatio;\n        require(curr_ratio >= min_ratio, \"current MCR must be greater than min MCR\");\n        sAsset(curr_asset_token).mint(msg.sender, mintAmount);\n        _idxPositionMap[positionIndex].assetAmount = new_amount;\n    }\n\n    function burn(uint positionIndex, uint burnAmount) external override onlyOwner{\n        require(positionIndex < _currentPositionIndex, \"Invalid index\");\n        require(msg.sender == _idxPositionMap[positionIndex].owner, \"Only the owner can close a position\");\n        uint curr_amount = _idxPositionMap[positionIndex].assetAmount;\n        require(burnAmount <= curr_amount, \"burnAmount must be smaller than current amount\");\n        address curr_asset_token = _idxPositionMap[positionIndex].assetToken;\n        uint new_amount = curr_amount - burnAmount;\n        sAsset(curr_asset_token).burn(msg.sender, burnAmount);\n        _idxPositionMap[positionIndex].assetAmount = new_amount;\n    }\n}",
  "sourcePath": "C:\\Users\\ashstarry\\Desktop\\ece598\\FinalDemo\\contracts\\Mint.sol",
  "compiler": {
    "name": "solc",
    "version": "0.8.7+commit.e28d00a7.Emscripten.clang"
  },
  "schemaVersion": "3.4.7",
  "updatedAt": "2022-05-08T20:05:27.350Z",
  "networkType": "ethereum",
  "devdoc": {
    "kind": "dev",
    "methods": {
      "owner()": {
        "details": "Returns the address of the current owner."
      },
      "renounceOwnership()": {
        "details": "Leaves the contract without owner. It will not be possible to call `onlyOwner` functions anymore. Can only be called by the current owner. NOTE: Renouncing ownership will leave the contract without an owner, thereby removing any functionality that is only available to the owner."
      },
      "transferOwnership(address)": {
        "details": "Transfers ownership of the contract to a new account (`newOwner`). Can only be called by the current owner."
      }
    },
    "version": 1
  },
  "userdoc": {
    "kind": "user",
    "methods": {},
    "version": 1
  }
}