{
  "contractName": "sAsset",
  "abi": [
    {
      "inputs": [
        {
          "internalType": "string",
          "name": "name",
          "type": "string"
        },
        {
          "internalType": "string",
          "name": "symbol",
          "type": "string"
        },
        {
          "internalType": "uint256",
          "name": "initialSupply",
          "type": "uint256"
        }
      ],
      "stateMutability": "nonpayable",
      "type": "constructor"
    },
    {
      "anonymous": false,
      "inputs": [
        {
          "indexed": true,
          "internalType": "address",
          "name": "owner",
          "type": "address"
        },
        {
          "indexed": true,
          "internalType": "address",
          "name": "spender",
          "type": "address"
        },
        {
          "indexed": false,
          "internalType": "uint256",
          "name": "value",
          "type": "uint256"
        }
      ],
      "name": "Approval",
      "type": "event"
    },
    {
      "anonymous": false,
      "inputs": [
        {
          "indexed": true,
          "internalType": "bytes32",
          "name": "role",
          "type": "bytes32"
        },
        {
          "indexed": true,
          "internalType": "bytes32",
          "name": "previousAdminRole",
          "type": "bytes32"
        },
        {
          "indexed": true,
          "internalType": "bytes32",
          "name": "newAdminRole",
          "type": "bytes32"
        }
      ],
      "name": "RoleAdminChanged",
      "type": "event"
    },
    {
      "anonymous": false,
      "inputs": [
        {
          "indexed": true,
          "internalType": "bytes32",
          "name": "role",
          "type": "bytes32"
        },
        {
          "indexed": true,
          "internalType": "address",
          "name": "account",
          "type": "address"
        },
        {
          "indexed": true,
          "internalType": "address",
          "name": "sender",
          "type": "address"
        }
      ],
      "name": "RoleGranted",
      "type": "event"
    },
    {
      "anonymous": false,
      "inputs": [
        {
          "indexed": true,
          "internalType": "bytes32",
          "name": "role",
          "type": "bytes32"
        },
        {
          "indexed": true,
          "internalType": "address",
          "name": "account",
          "type": "address"
        },
        {
          "indexed": true,
          "internalType": "address",
          "name": "sender",
          "type": "address"
        }
      ],
      "name": "RoleRevoked",
      "type": "event"
    },
    {
      "anonymous": false,
      "inputs": [
        {
          "indexed": true,
          "internalType": "address",
          "name": "from",
          "type": "address"
        },
        {
          "indexed": true,
          "internalType": "address",
          "name": "to",
          "type": "address"
        },
        {
          "indexed": false,
          "internalType": "uint256",
          "name": "value",
          "type": "uint256"
        }
      ],
      "name": "Transfer",
      "type": "event"
    },
    {
      "anonymous": false,
      "inputs": [
        {
          "indexed": false,
          "internalType": "address",
          "name": "from",
          "type": "address"
        },
        {
          "indexed": false,
          "internalType": "uint256",
          "name": "amount",
          "type": "uint256"
        }
      ],
      "name": "burnToken",
      "type": "event"
    },
    {
      "anonymous": false,
      "inputs": [
        {
          "indexed": false,
          "internalType": "address",
          "name": "to",
          "type": "address"
        },
        {
          "indexed": false,
          "internalType": "uint256",
          "name": "amount",
          "type": "uint256"
        }
      ],
      "name": "mintToken",
      "type": "event"
    },
    {
      "inputs": [],
      "name": "BURNER_ROLE",
      "outputs": [
        {
          "internalType": "bytes32",
          "name": "",
          "type": "bytes32"
        }
      ],
      "stateMutability": "view",
      "type": "function"
    },
    {
      "inputs": [],
      "name": "DEFAULT_ADMIN_ROLE",
      "outputs": [
        {
          "internalType": "bytes32",
          "name": "",
          "type": "bytes32"
        }
      ],
      "stateMutability": "view",
      "type": "function"
    },
    {
      "inputs": [],
      "name": "MINTER_ROLE",
      "outputs": [
        {
          "internalType": "bytes32",
          "name": "",
          "type": "bytes32"
        }
      ],
      "stateMutability": "view",
      "type": "function"
    },
    {
      "inputs": [
        {
          "internalType": "address",
          "name": "owner",
          "type": "address"
        },
        {
          "internalType": "address",
          "name": "spender",
          "type": "address"
        }
      ],
      "name": "allowance",
      "outputs": [
        {
          "internalType": "uint256",
          "name": "",
          "type": "uint256"
        }
      ],
      "stateMutability": "view",
      "type": "function"
    },
    {
      "inputs": [
        {
          "internalType": "address",
          "name": "spender",
          "type": "address"
        },
        {
          "internalType": "uint256",
          "name": "amount",
          "type": "uint256"
        }
      ],
      "name": "approve",
      "outputs": [
        {
          "internalType": "bool",
          "name": "",
          "type": "bool"
        }
      ],
      "stateMutability": "nonpayable",
      "type": "function"
    },
    {
      "inputs": [
        {
          "internalType": "address",
          "name": "account",
          "type": "address"
        }
      ],
      "name": "balanceOf",
      "outputs": [
        {
          "internalType": "uint256",
          "name": "",
          "type": "uint256"
        }
      ],
      "stateMutability": "view",
      "type": "function"
    },
    {
      "inputs": [
        {
          "internalType": "address",
          "name": "spender",
          "type": "address"
        },
        {
          "internalType": "uint256",
          "name": "subtractedValue",
          "type": "uint256"
        }
      ],
      "name": "decreaseAllowance",
      "outputs": [
        {
          "internalType": "bool",
          "name": "",
          "type": "bool"
        }
      ],
      "stateMutability": "nonpayable",
      "type": "function"
    },
    {
      "inputs": [
        {
          "internalType": "bytes32",
          "name": "role",
          "type": "bytes32"
        }
      ],
      "name": "getRoleAdmin",
      "outputs": [
        {
          "internalType": "bytes32",
          "name": "",
          "type": "bytes32"
        }
      ],
      "stateMutability": "view",
      "type": "function"
    },
    {
      "inputs": [
        {
          "internalType": "bytes32",
          "name": "role",
          "type": "bytes32"
        },
        {
          "internalType": "address",
          "name": "account",
          "type": "address"
        }
      ],
      "name": "grantRole",
      "outputs": [],
      "stateMutability": "nonpayable",
      "type": "function"
    },
    {
      "inputs": [
        {
          "internalType": "bytes32",
          "name": "role",
          "type": "bytes32"
        },
        {
          "internalType": "address",
          "name": "account",
          "type": "address"
        }
      ],
      "name": "hasRole",
      "outputs": [
        {
          "internalType": "bool",
          "name": "",
          "type": "bool"
        }
      ],
      "stateMutability": "view",
      "type": "function"
    },
    {
      "inputs": [
        {
          "internalType": "address",
          "name": "spender",
          "type": "address"
        },
        {
          "internalType": "uint256",
          "name": "addedValue",
          "type": "uint256"
        }
      ],
      "name": "increaseAllowance",
      "outputs": [
        {
          "internalType": "bool",
          "name": "",
          "type": "bool"
        }
      ],
      "stateMutability": "nonpayable",
      "type": "function"
    },
    {
      "inputs": [],
      "name": "name",
      "outputs": [
        {
          "internalType": "string",
          "name": "",
          "type": "string"
        }
      ],
      "stateMutability": "view",
      "type": "function"
    },
    {
      "inputs": [
        {
          "internalType": "bytes32",
          "name": "role",
          "type": "bytes32"
        },
        {
          "internalType": "address",
          "name": "account",
          "type": "address"
        }
      ],
      "name": "renounceRole",
      "outputs": [],
      "stateMutability": "nonpayable",
      "type": "function"
    },
    {
      "inputs": [
        {
          "internalType": "bytes32",
          "name": "role",
          "type": "bytes32"
        },
        {
          "internalType": "address",
          "name": "account",
          "type": "address"
        }
      ],
      "name": "revokeRole",
      "outputs": [],
      "stateMutability": "nonpayable",
      "type": "function"
    },
    {
      "inputs": [
        {
          "internalType": "bytes4",
          "name": "interfaceId",
          "type": "bytes4"
        }
      ],
      "name": "supportsInterface",
      "outputs": [
        {
          "internalType": "bool",
          "name": "",
          "type": "bool"
        }
      ],
      "stateMutability": "view",
      "type": "function"
    },
    {
      "inputs": [],
      "name": "symbol",
      "outputs": [
        {
          "internalType": "string",
          "name": "",
          "type": "string"
        }
      ],
      "stateMutability": "view",
      "type": "function"
    },
    {
      "inputs": [],
      "name": "totalSupply",
      "outputs": [
        {
          "internalType": "uint256",
          "name": "",
          "type": "uint256"
        }
      ],
      "stateMutability": "view",
      "type": "function"
    },
    {
      "inputs": [
        {
          "internalType": "address",
          "name": "to",
          "type": "address"
        },
        {
          "internalType": "uint256",
          "name": "amount",
          "type": "uint256"
        }
      ],
      "name": "transfer",
      "outputs": [
        {
          "internalType": "bool",
          "name": "",
          "type": "bool"
        }
      ],
      "stateMutability": "nonpayable",
      "type": "function"
    },
    {
      "inputs": [
        {
          "internalType": "address",
          "name": "from",
          "type": "address"
        },
        {
          "internalType": "address",
          "name": "to",
          "type": "address"
        },
        {
          "internalType": "uint256",
          "name": "amount",
          "type": "uint256"
        }
      ],
      "name": "transferFrom",
      "outputs": [
        {
          "internalType": "bool",
          "name": "",
          "type": "bool"
        }
      ],
      "stateMutability": "nonpayable",
      "type": "function"
    },
    {
      "inputs": [
        {
          "internalType": "address",
          "name": "to",
          "type": "address"
        },
        {
          "internalType": "uint256",
          "name": "amount",
          "type": "uint256"
        }
      ],
      "name": "mint",
      "outputs": [],
      "stateMutability": "nonpayable",
      "type": "function"
    },
    {
      "inputs": [
        {
          "internalType": "address",
          "name": "from",
          "type": "address"
        },
        {
          "internalType": "uint256",
          "name": "amount",
          "type": "uint256"
        }
      ],
      "name": "burn",
      "outputs": [],
      "stateMutability": "nonpayable",
      "type": "function"
    },
    {
      "inputs": [],
      "name": "decimals",
      "outputs": [
        {
          "internalType": "uint8",
          "name": "",
          "type": "uint8"
        }
      ],
      "stateMutability": "view",
      "type": "function"
    }
  ],
  "bytecode": "0x60806040523480156200001157600080fd5b50604051620030ac380380620030ac833981810160405281019062000037919062000516565b8282816003908051906020019062000051929190620003d1565b5080600490805190602001906200006a929190620003d1565b505050620000ac3362000082620000ca60201b60201c565b60ff16600a6200009391906200074f565b83620000a091906200088c565b620000d360201b60201c565b620000c16000801b336200024c60201b60201c565b50505062000a9b565b60006008905090565b600073ffffffffffffffffffffffffffffffffffffffff168273ffffffffffffffffffffffffffffffffffffffff16141562000146576040517f08c379a00000000000000000000000000000000000000000000000000000000081526004016200013d90620005e8565b60405180910390fd5b6200015a600083836200026260201b60201c565b80600260008282546200016e919062000697565b92505081905550806000808473ffffffffffffffffffffffffffffffffffffffff1673ffffffffffffffffffffffffffffffffffffffff1681526020019081526020016000206000828254620001c5919062000697565b925050819055508173ffffffffffffffffffffffffffffffffffffffff16600073ffffffffffffffffffffffffffffffffffffffff167fddf252ad1be2c89b69c2b068fc378daa952ba7f163c4a11628f55a4df523b3ef836040516200022c91906200060a565b60405180910390a362000248600083836200026760201b60201c565b5050565b6200025e82826200026c60201b60201c565b5050565b505050565b505050565b6200027e82826200035e60201b60201c565b6200035a5760016005600084815260200190815260200160002060000160008373ffffffffffffffffffffffffffffffffffffffff1673ffffffffffffffffffffffffffffffffffffffff16815260200190815260200160002060006101000a81548160ff021916908315150217905550620002ff620003c960201b60201c565b73ffffffffffffffffffffffffffffffffffffffff168173ffffffffffffffffffffffffffffffffffffffff16837f2f8788117e7eff1d82e926ec794901d17c78024a50270940304540a733656f0d60405160405180910390a45b5050565b60006005600084815260200190815260200160002060000160008373ffffffffffffffffffffffffffffffffffffffff1673ffffffffffffffffffffffffffffffffffffffff16815260200190815260200160002060009054906101000a900460ff16905092915050565b600033905090565b828054620003df906200092d565b90600052602060002090601f0160209004810192826200040357600085556200044f565b82601f106200041e57805160ff19168380011785556200044f565b828001600101855582156200044f579182015b828111156200044e57825182559160200191906001019062000431565b5b5090506200045e919062000462565b5090565b5b808211156200047d57600081600090555060010162000463565b5090565b600062000498620004928462000650565b62000627565b905082815260208101848484011115620004b757620004b662000a2b565b5b620004c4848285620008f7565b509392505050565b600082601f830112620004e457620004e362000a26565b5b8151620004f684826020860162000481565b91505092915050565b600081519050620005108162000a81565b92915050565b60008060006060848603121562000532576200053162000a35565b5b600084015167ffffffffffffffff81111562000553576200055262000a30565b5b6200056186828701620004cc565b935050602084015167ffffffffffffffff81111562000585576200058462000a30565b5b6200059386828701620004cc565b9250506040620005a686828701620004ff565b9150509250925092565b6000620005bf601f8362000686565b9150620005cc8262000a58565b602082019050919050565b620005e281620008ed565b82525050565b600060208201905081810360008301526200060381620005b0565b9050919050565b6000602082019050620006216000830184620005d7565b92915050565b60006200063362000646565b905062000641828262000963565b919050565b6000604051905090565b600067ffffffffffffffff8211156200066e576200066d620009f7565b5b620006798262000a3a565b9050602081019050919050565b600082825260208201905092915050565b6000620006a482620008ed565b9150620006b183620008ed565b9250827fffffffffffffffffffffffffffffffffffffffffffffffffffffffffffffffff03821115620006e957620006e862000999565b5b828201905092915050565b6000808291508390505b600185111562000746578086048111156200071e576200071d62000999565b5b60018516156200072e5780820291505b80810290506200073e8562000a4b565b9450620006fe565b94509492505050565b60006200075c82620008ed565b91506200076983620008ed565b9250620007987fffffffffffffffffffffffffffffffffffffffffffffffffffffffffffffffff8484620007a0565b905092915050565b600082620007b2576001905062000885565b81620007c2576000905062000885565b8160018114620007db5760028114620007e6576200081c565b600191505062000885565b60ff841115620007fb57620007fa62000999565b5b8360020a91508482111562000815576200081462000999565b5b5062000885565b5060208310610133831016604e8410600b8410161715620008565782820a90508381111562000850576200084f62000999565b5b62000885565b620008658484846001620006f4565b925090508184048111156200087f576200087e62000999565b5b81810290505b9392505050565b60006200089982620008ed565b9150620008a683620008ed565b9250817fffffffffffffffffffffffffffffffffffffffffffffffffffffffffffffffff0483118215151615620008e257620008e162000999565b5b828202905092915050565b6000819050919050565b60005b8381101562000917578082015181840152602081019050620008fa565b8381111562000927576000848401525b50505050565b600060028204905060018216806200094657607f821691505b602082108114156200095d576200095c620009c8565b5b50919050565b6200096e8262000a3a565b810181811067ffffffffffffffff8211171562000990576200098f620009f7565b5b80604052505050565b7f4e487b7100000000000000000000000000000000000000000000000000000000600052601160045260246000fd5b7f4e487b7100000000000000000000000000000000000000000000000000000000600052602260045260246000fd5b7f4e487b7100000000000000000000000000000000000000000000000000000000600052604160045260246000fd5b600080fd5b600080fd5b600080fd5b600080fd5b6000601f19601f8301169050919050565b60008160011c9050919050565b7f45524332303a206d696e7420746f20746865207a65726f206164647265737300600082015250565b62000a8c81620008ed565b811462000a9857600080fd5b50565b6126018062000aab6000396000f3fe608060405234801561001057600080fd5b50600436106101425760003560e01c806340c10f19116100b8578063a217fddf1161007c578063a217fddf1461039d578063a457c2d7146103bb578063a9059cbb146103eb578063d53913931461041b578063d547741f14610439578063dd62ed3e1461045557610142565b806340c10f19146102e757806370a082311461030357806391d148541461033357806395d89b41146103635780639dc29fac1461038157610142565b8063248a9ca31161010a578063248a9ca314610213578063282c51f3146102435780632f2ff15d14610261578063313ce5671461027d57806336568abe1461029b57806339509351146102b757610142565b806301ffc9a71461014757806306fdde0314610177578063095ea7b31461019557806318160ddd146101c557806323b872dd146101e3575b600080fd5b610161600480360381019061015c91906119a7565b610485565b60405161016e9190611cd6565b60405180910390f35b61017f6104ff565b60405161018c9190611d0c565b60405180910390f35b6101af60048036038101906101aa91906118fa565b610591565b6040516101bc9190611cd6565b60405180910390f35b6101cd6105b4565b6040516101da9190611eae565b60405180910390f35b6101fd60048036038101906101f891906118a7565b6105be565b60405161020a9190611cd6565b60405180910390f35b61022d6004803603810190610228919061193a565b6105ed565b60405161023a9190611cf1565b60405180910390f35b61024b61060d565b6040516102589190611cf1565b60405180910390f35b61027b60048036038101906102769190611967565b610631565b005b610285610652565b6040516102929190611ec9565b60405180910390f35b6102b560048036038101906102b09190611967565b61065b565b005b6102d160048036038101906102cc91906118fa565b6106de565b6040516102de9190611cd6565b60405180910390f35b61030160048036038101906102fc91906118fa565b610715565b005b61031d6004803603810190610318919061183a565b610787565b60405161032a9190611eae565b60405180910390f35b61034d60048036038101906103489190611967565b6107cf565b60405161035a9190611cd6565b60405180910390f35b61036b61083a565b6040516103789190611d0c565b60405180910390f35b61039b600480360381019061039691906118fa565b6108cc565b005b6103a561093e565b6040516103b29190611cf1565b60405180910390f35b6103d560048036038101906103d091906118fa565b610945565b6040516103e29190611cd6565b60405180910390f35b610405600480360381019061040091906118fa565b6109bc565b6040516104129190611cd6565b60405180910390f35b6104236109df565b6040516104309190611cf1565b60405180910390f35b610453600480360381019061044e9190611967565b610a03565b005b61046f600480360381019061046a9190611867565b610a24565b60405161047c9190611eae565b60405180910390f35b60007f7965db0b000000000000000000000000000000000000000000000000000000007bffffffffffffffffffffffffffffffffffffffffffffffffffffffff1916827bffffffffffffffffffffffffffffffffffffffffffffffffffffffff191614806104f857506104f782610aab565b5b9050919050565b60606003805461050e906120d7565b80601f016020809104026020016040519081016040528092919081815260200182805461053a906120d7565b80156105875780601f1061055c57610100808354040283529160200191610587565b820191906000526020600020905b81548152906001019060200180831161056a57829003601f168201915b5050505050905090565b60008061059c610b15565b90506105a9818585610b1d565b600191505092915050565b6000600254905090565b6000806105c9610b15565b90506105d6858285610ce8565b6105e1858585610d74565b60019150509392505050565b600060056000838152602001908152602001600020600101549050919050565b7f3c11d16cbaffd01df69ce1c404f6340ee057498f5f00246190ea54220576a84881565b61063a826105ed565b61064381610ff5565b61064d8383611009565b505050565b60006008905090565b610663610b15565b73ffffffffffffffffffffffffffffffffffffffff168173ffffffffffffffffffffffffffffffffffffffff16146106d0576040517f08c379a00000000000000000000000000000000000000000000000000000000081526004016106c790611e6e565b60405180910390fd5b6106da82826110ea565b5050565b6000806106e9610b15565b905061070a8185856106fb8589610a24565b6107059190611f0b565b610b1d565b600191505092915050565b7f9f2df0fed2c77648de5860a4cc508cd0818c85b8b8a1ab4ceeef8d981c8956a661073f81610ff5565b61074983836111cc565b7f79c65068f81072733b15ab3cba61b23110793f90ab099d228a414b186333a81e838360405161077a929190611cad565b60405180910390a1505050565b60008060008373ffffffffffffffffffffffffffffffffffffffff1673ffffffffffffffffffffffffffffffffffffffff168152602001908152602001600020549050919050565b60006005600084815260200190815260200160002060000160008373ffffffffffffffffffffffffffffffffffffffff1673ffffffffffffffffffffffffffffffffffffffff16815260200190815260200160002060009054906101000a900460ff16905092915050565b606060048054610849906120d7565b80601f0160208091040260200160405190810160405280929190818152602001828054610875906120d7565b80156108c25780601f10610897576101008083540402835291602001916108c2565b820191906000526020600020905b8154815290600101906020018083116108a557829003601f168201915b5050505050905090565b7f3c11d16cbaffd01df69ce1c404f6340ee057498f5f00246190ea54220576a8486108f681610ff5565b610900838361132c565b7fd1df306c742159c188c29d2c167874a39b84fd0f96f794ad7ea53295680ec1c58383604051610931929190611cad565b60405180910390a1505050565b6000801b81565b600080610950610b15565b9050600061095e8286610a24565b9050838110156109a3576040517f08c379a000000000000000000000000000000000000000000000000000000000815260040161099a90611e4e565b60405180910390fd5b6109b08286868403610b1d565b60019250505092915050565b6000806109c7610b15565b90506109d4818585610d74565b600191505092915050565b7f9f2df0fed2c77648de5860a4cc508cd0818c85b8b8a1ab4ceeef8d981c8956a681565b610a0c826105ed565b610a1581610ff5565b610a1f83836110ea565b505050565b6000600160008473ffffffffffffffffffffffffffffffffffffffff1673ffffffffffffffffffffffffffffffffffffffff16815260200190815260200160002060008373ffffffffffffffffffffffffffffffffffffffff1673ffffffffffffffffffffffffffffffffffffffff16815260200190815260200160002054905092915050565b60007f01ffc9a7000000000000000000000000000000000000000000000000000000007bffffffffffffffffffffffffffffffffffffffffffffffffffffffff1916827bffffffffffffffffffffffffffffffffffffffffffffffffffffffff1916149050919050565b600033905090565b600073ffffffffffffffffffffffffffffffffffffffff168373ffffffffffffffffffffffffffffffffffffffff161415610b8d576040517f08c379a0000000000000000000000000000000000000000000000000000000008152600401610b8490611e2e565b60405180910390fd5b600073ffffffffffffffffffffffffffffffffffffffff168273ffffffffffffffffffffffffffffffffffffffff161415610bfd576040517f08c379a0000000000000000000000000000000000000000000000000000000008152600401610bf490611d8e565b60405180910390fd5b80600160008573ffffffffffffffffffffffffffffffffffffffff1673ffffffffffffffffffffffffffffffffffffffff16815260200190815260200160002060008473ffffffffffffffffffffffffffffffffffffffff1673ffffffffffffffffffffffffffffffffffffffff168152602001908152602001600020819055508173ffffffffffffffffffffffffffffffffffffffff168373ffffffffffffffffffffffffffffffffffffffff167f8c5be1e5ebec7d5bd14f71427d1e84f3dd0314c0f7b2291e5b200ac8c7c3b92583604051610cdb9190611eae565b60405180910390a3505050565b6000610cf48484610a24565b90507fffffffffffffffffffffffffffffffffffffffffffffffffffffffffffffffff8114610d6e5781811015610d60576040517f08c379a0000000000000000000000000000000000000000000000000000000008152600401610d5790611dae565b60405180910390fd5b610d6d8484848403610b1d565b5b50505050565b600073ffffffffffffffffffffffffffffffffffffffff168373ffffffffffffffffffffffffffffffffffffffff161415610de4576040517f08c379a0000000000000000000000000000000000000000000000000000000008152600401610ddb90611e0e565b60405180910390fd5b600073ffffffffffffffffffffffffffffffffffffffff168273ffffffffffffffffffffffffffffffffffffffff161415610e54576040517f08c379a0000000000000000000000000000000000000000000000000000000008152600401610e4b90611d4e565b60405180910390fd5b610e5f838383611503565b60008060008573ffffffffffffffffffffffffffffffffffffffff1673ffffffffffffffffffffffffffffffffffffffff16815260200190815260200160002054905081811015610ee5576040517f08c379a0000000000000000000000000000000000000000000000000000000008152600401610edc90611dce565b60405180910390fd5b8181036000808673ffffffffffffffffffffffffffffffffffffffff1673ffffffffffffffffffffffffffffffffffffffff16815260200190815260200160002081905550816000808573ffffffffffffffffffffffffffffffffffffffff1673ffffffffffffffffffffffffffffffffffffffff1681526020019081526020016000206000828254610f789190611f0b565b925050819055508273ffffffffffffffffffffffffffffffffffffffff168473ffffffffffffffffffffffffffffffffffffffff167fddf252ad1be2c89b69c2b068fc378daa952ba7f163c4a11628f55a4df523b3ef84604051610fdc9190611eae565b60405180910390a3610fef848484611508565b50505050565b61100681611001610b15565b61150d565b50565b61101382826107cf565b6110e65760016005600084815260200190815260200160002060000160008373ffffffffffffffffffffffffffffffffffffffff1673ffffffffffffffffffffffffffffffffffffffff16815260200190815260200160002060006101000a81548160ff02191690831515021790555061108b610b15565b73ffffffffffffffffffffffffffffffffffffffff168173ffffffffffffffffffffffffffffffffffffffff16837f2f8788117e7eff1d82e926ec794901d17c78024a50270940304540a733656f0d60405160405180910390a45b5050565b6110f482826107cf565b156111c85760006005600084815260200190815260200160002060000160008373ffffffffffffffffffffffffffffffffffffffff1673ffffffffffffffffffffffffffffffffffffffff16815260200190815260200160002060006101000a81548160ff02191690831515021790555061116d610b15565b73ffffffffffffffffffffffffffffffffffffffff168173ffffffffffffffffffffffffffffffffffffffff16837ff6391f5c32d9c69d2a47ea670b442974b53935d1edc7fd64eb21e047a839171b60405160405180910390a45b5050565b600073ffffffffffffffffffffffffffffffffffffffff168273ffffffffffffffffffffffffffffffffffffffff16141561123c576040517f08c379a000000000000000000000000000000000000000000000000000000000815260040161123390611e8e565b60405180910390fd5b61124860008383611503565b806002600082825461125a9190611f0b565b92505081905550806000808473ffffffffffffffffffffffffffffffffffffffff1673ffffffffffffffffffffffffffffffffffffffff16815260200190815260200160002060008282546112af9190611f0b565b925050819055508173ffffffffffffffffffffffffffffffffffffffff16600073ffffffffffffffffffffffffffffffffffffffff167fddf252ad1be2c89b69c2b068fc378daa952ba7f163c4a11628f55a4df523b3ef836040516113149190611eae565b60405180910390a361132860008383611508565b5050565b600073ffffffffffffffffffffffffffffffffffffffff168273ffffffffffffffffffffffffffffffffffffffff16141561139c576040517f08c379a000000000000000000000000000000000000000000000000000000000815260040161139390611dee565b60405180910390fd5b6113a882600083611503565b60008060008473ffffffffffffffffffffffffffffffffffffffff1673ffffffffffffffffffffffffffffffffffffffff1681526020019081526020016000205490508181101561142e576040517f08c379a000000000000000000000000000000000000000000000000000000000815260040161142590611d6e565b60405180910390fd5b8181036000808573ffffffffffffffffffffffffffffffffffffffff1673ffffffffffffffffffffffffffffffffffffffff1681526020019081526020016000208190555081600260008282546114859190611fbb565b92505081905550600073ffffffffffffffffffffffffffffffffffffffff168373ffffffffffffffffffffffffffffffffffffffff167fddf252ad1be2c89b69c2b068fc378daa952ba7f163c4a11628f55a4df523b3ef846040516114ea9190611eae565b60405180910390a36114fe83600084611508565b505050565b505050565b505050565b61151782826107cf565b6115a65761153c8173ffffffffffffffffffffffffffffffffffffffff1660146115aa565b61154a8360001c60206115aa565b60405160200161155b929190611c73565b6040516020818303038152906040526040517f08c379a000000000000000000000000000000000000000000000000000000000815260040161159d9190611d0c565b60405180910390fd5b5050565b6060600060028360026115bd9190611f61565b6115c79190611f0b565b67ffffffffffffffff8111156115e0576115df612196565b5b6040519080825280601f01601f1916602001820160405280156116125781602001600182028036833780820191505090505b5090507f30000000000000000000000000000000000000000000000000000000000000008160008151811061164a57611649612167565b5b60200101907effffffffffffffffffffffffffffffffffffffffffffffffffffffffffffff1916908160001a9053507f7800000000000000000000000000000000000000000000000000000000000000816001815181106116ae576116ad612167565b5b60200101907effffffffffffffffffffffffffffffffffffffffffffffffffffffffffffff1916908160001a905350600060018460026116ee9190611f61565b6116f89190611f0b565b90505b6001811115611798577f3031323334353637383961626364656600000000000000000000000000000000600f86166010811061173a57611739612167565b5b1a60f81b82828151811061175157611750612167565b5b60200101907effffffffffffffffffffffffffffffffffffffffffffffffffffffffffffff1916908160001a905350600485901c945080611791906120ad565b90506116fb565b50600084146117dc576040517f08c379a00000000000000000000000000000000000000000000000000000000081526004016117d390611d2e565b60405180910390fd5b8091505092915050565b6000813590506117f58161256f565b92915050565b60008135905061180a81612586565b92915050565b60008135905061181f8161259d565b92915050565b600081359050611834816125b4565b92915050565b6000602082840312156118505761184f6121c5565b5b600061185e848285016117e6565b91505092915050565b6000806040838503121561187e5761187d6121c5565b5b600061188c858286016117e6565b925050602061189d858286016117e6565b9150509250929050565b6000806000606084860312156118c0576118bf6121c5565b5b60006118ce868287016117e6565b93505060206118df868287016117e6565b92505060406118f086828701611825565b9150509250925092565b60008060408385031215611911576119106121c5565b5b600061191f858286016117e6565b925050602061193085828601611825565b9150509250929050565b6000602082840312156119505761194f6121c5565b5b600061195e848285016117fb565b91505092915050565b6000806040838503121561197e5761197d6121c5565b5b600061198c858286016117fb565b925050602061199d858286016117e6565b9150509250929050565b6000602082840312156119bd576119bc6121c5565b5b60006119cb84828501611810565b91505092915050565b6119dd81611fef565b82525050565b6119ec81612001565b82525050565b6119fb8161200d565b82525050565b6000611a0c82611ee4565b611a168185611eef565b9350611a2681856020860161207a565b611a2f816121ca565b840191505092915050565b6000611a4582611ee4565b611a4f8185611f00565b9350611a5f81856020860161207a565b80840191505092915050565b6000611a78602083611eef565b9150611a83826121db565b602082019050919050565b6000611a9b602383611eef565b9150611aa682612204565b604082019050919050565b6000611abe602283611eef565b9150611ac982612253565b604082019050919050565b6000611ae1602283611eef565b9150611aec826122a2565b604082019050919050565b6000611b04601d83611eef565b9150611b0f826122f1565b602082019050919050565b6000611b27602683611eef565b9150611b328261231a565b604082019050919050565b6000611b4a602183611eef565b9150611b5582612369565b604082019050919050565b6000611b6d602583611eef565b9150611b78826123b8565b604082019050919050565b6000611b90602483611eef565b9150611b9b82612407565b604082019050919050565b6000611bb3601783611f00565b9150611bbe82612456565b601782019050919050565b6000611bd6602583611eef565b9150611be18261247f565b604082019050919050565b6000611bf9601183611f00565b9150611c04826124ce565b601182019050919050565b6000611c1c602f83611eef565b9150611c27826124f7565b604082019050919050565b6000611c3f601f83611eef565b9150611c4a82612546565b602082019050919050565b611c5e81612063565b82525050565b611c6d8161206d565b82525050565b6000611c7e82611ba6565b9150611c8a8285611a3a565b9150611c9582611bec565b9150611ca18284611a3a565b91508190509392505050565b6000604082019050611cc260008301856119d4565b611ccf6020830184611c55565b9392505050565b6000602082019050611ceb60008301846119e3565b92915050565b6000602082019050611d0660008301846119f2565b92915050565b60006020820190508181036000830152611d268184611a01565b905092915050565b60006020820190508181036000830152611d4781611a6b565b9050919050565b60006020820190508181036000830152611d6781611a8e565b9050919050565b60006020820190508181036000830152611d8781611ab1565b9050919050565b60006020820190508181036000830152611da781611ad4565b9050919050565b60006020820190508181036000830152611dc781611af7565b9050919050565b60006020820190508181036000830152611de781611b1a565b9050919050565b60006020820190508181036000830152611e0781611b3d565b9050919050565b60006020820190508181036000830152611e2781611b60565b9050919050565b60006020820190508181036000830152611e4781611b83565b9050919050565b60006020820190508181036000830152611e6781611bc9565b9050919050565b60006020820190508181036000830152611e8781611c0f565b9050919050565b60006020820190508181036000830152611ea781611c32565b9050919050565b6000602082019050611ec36000830184611c55565b92915050565b6000602082019050611ede6000830184611c64565b92915050565b600081519050919050565b600082825260208201905092915050565b600081905092915050565b6000611f1682612063565b9150611f2183612063565b9250827fffffffffffffffffffffffffffffffffffffffffffffffffffffffffffffffff03821115611f5657611f55612109565b5b828201905092915050565b6000611f6c82612063565b9150611f7783612063565b9250817fffffffffffffffffffffffffffffffffffffffffffffffffffffffffffffffff0483118215151615611fb057611faf612109565b5b828202905092915050565b6000611fc682612063565b9150611fd183612063565b925082821015611fe457611fe3612109565b5b828203905092915050565b6000611ffa82612043565b9050919050565b60008115159050919050565b6000819050919050565b60007fffffffff0000000000000000000000000000000000000000000000000000000082169050919050565b600073ffffffffffffffffffffffffffffffffffffffff82169050919050565b6000819050919050565b600060ff82169050919050565b60005b8381101561209857808201518184015260208101905061207d565b838111156120a7576000848401525b50505050565b60006120b882612063565b915060008214156120cc576120cb612109565b5b600182039050919050565b600060028204905060018216806120ef57607f821691505b6020821081141561210357612102612138565b5b50919050565b7f4e487b7100000000000000000000000000000000000000000000000000000000600052601160045260246000fd5b7f4e487b7100000000000000000000000000000000000000000000000000000000600052602260045260246000fd5b7f4e487b7100000000000000000000000000000000000000000000000000000000600052603260045260246000fd5b7f4e487b7100000000000000000000000000000000000000000000000000000000600052604160045260246000fd5b600080fd5b6000601f19601f8301169050919050565b7f537472696e67733a20686578206c656e67746820696e73756666696369656e74600082015250565b7f45524332303a207472616e7366657220746f20746865207a65726f206164647260008201527f6573730000000000000000000000000000000000000000000000000000000000602082015250565b7f45524332303a206275726e20616d6f756e7420657863656564732062616c616e60008201527f6365000000000000000000000000000000000000000000000000000000000000602082015250565b7f45524332303a20617070726f766520746f20746865207a65726f20616464726560008201527f7373000000000000000000000000000000000000000000000000000000000000602082015250565b7f45524332303a20696e73756666696369656e7420616c6c6f77616e6365000000600082015250565b7f45524332303a207472616e7366657220616d6f756e742065786365656473206260008201527f616c616e63650000000000000000000000000000000000000000000000000000602082015250565b7f45524332303a206275726e2066726f6d20746865207a65726f2061646472657360008201527f7300000000000000000000000000000000000000000000000000000000000000602082015250565b7f45524332303a207472616e736665722066726f6d20746865207a65726f20616460008201527f6472657373000000000000000000000000000000000000000000000000000000602082015250565b7f45524332303a20617070726f76652066726f6d20746865207a65726f2061646460008201527f7265737300000000000000000000000000000000000000000000000000000000602082015250565b7f416363657373436f6e74726f6c3a206163636f756e7420000000000000000000600082015250565b7f45524332303a2064656372656173656420616c6c6f77616e63652062656c6f7760008201527f207a65726f000000000000000000000000000000000000000000000000000000602082015250565b7f206973206d697373696e6720726f6c6520000000000000000000000000000000600082015250565b7f416363657373436f6e74726f6c3a2063616e206f6e6c792072656e6f756e636560008201527f20726f6c657320666f722073656c660000000000000000000000000000000000602082015250565b7f45524332303a206d696e7420746f20746865207a65726f206164647265737300600082015250565b61257881611fef565b811461258357600080fd5b50565b61258f8161200d565b811461259a57600080fd5b50565b6125a681612017565b81146125b157600080fd5b50565b6125bd81612063565b81146125c857600080fd5b5056fea26469706673582212204b4bf58da183730a35a08336080daf90608d2c447aa58d5c830a41463742405f64736f6c63430008070033",
  "immutableReferences": {},
  "source": "pragma solidity >=0.8.0 <0.9.0;\n//SPDX-License-Identifier: MIT\n\nimport \"@openzeppelin/contracts/token/ERC20/ERC20.sol\";\nimport \"@openzeppelin/contracts/access/AccessControl.sol\";\n\ncontract sAsset is ERC20, AccessControl {\n    // Create a new role identifier for the minter / burner role\n    bytes32 public constant MINTER_ROLE = keccak256(\"MINTER_ROLE\");\n    bytes32 public constant BURNER_ROLE = keccak256(\"BURNER_ROLE\");    \n    /**\n     * @dev Constructor that gives msg.sender all of existing tokens.\n     */\n    constructor(\n        string memory name,\n        string memory symbol,\n        uint256 initialSupply\n    ) ERC20(name, symbol) {\n        _mint(msg.sender, initialSupply * (10 ** uint256(decimals())));\n        // Grant the contract deployer the default admin role: it will be able\n        // to grant and revoke any roles\n        _setupRole(DEFAULT_ADMIN_ROLE, msg.sender);\n    }\n\n    event mintToken(address to, uint256 amount);\n    event burnToken(address from, uint256 amount);\n\n\n    function mint(address to, uint256 amount) external onlyRole(MINTER_ROLE) {        \n        _mint(to, amount);\n        emit mintToken(to, amount);\n    }\n\n    function burn(address from, uint256 amount) external onlyRole(BURNER_ROLE) {        \n        _burn(from, amount);\n        emit burnToken(from, amount);\n    }\n\n    function decimals() public view virtual override returns (uint8) {\n        return 8;\n    }\n}",
  "sourcePath": "C:\\Users\\ashstarry\\Desktop\\ece598\\FinalDemo\\contracts\\sAsset.sol",
  "compiler": {
    "name": "solc",
    "version": "0.8.7+commit.e28d00a7.Emscripten.clang"
  },
  "schemaVersion": "3.4.7",
  "updatedAt": "2022-05-08T20:05:15.068Z",
  "devdoc": {
    "kind": "dev",
    "methods": {
      "allowance(address,address)": {
        "details": "See {IERC20-allowance}."
      },
      "approve(address,uint256)": {
        "details": "See {IERC20-approve}. NOTE: If `amount` is the maximum `uint256`, the allowance is not updated on `transferFrom`. This is semantically equivalent to an infinite approval. Requirements: - `spender` cannot be the zero address."
      },
      "balanceOf(address)": {
        "details": "See {IERC20-balanceOf}."
      },
      "constructor": {
        "details": "Constructor that gives msg.sender all of existing tokens."
      },
      "decimals()": {
        "details": "Returns the number of decimals used to get its user representation. For example, if `decimals` equals `2`, a balance of `505` tokens should be displayed to a user as `5.05` (`505 / 10 ** 2`). Tokens usually opt for a value of 18, imitating the relationship between Ether and Wei. This is the value {ERC20} uses, unless this function is overridden; NOTE: This information is only used for _display_ purposes: it in no way affects any of the arithmetic of the contract, including {IERC20-balanceOf} and {IERC20-transfer}."
      },
      "decreaseAllowance(address,uint256)": {
        "details": "Atomically decreases the allowance granted to `spender` by the caller. This is an alternative to {approve} that can be used as a mitigation for problems described in {IERC20-approve}. Emits an {Approval} event indicating the updated allowance. Requirements: - `spender` cannot be the zero address. - `spender` must have allowance for the caller of at least `subtractedValue`."
      },
      "getRoleAdmin(bytes32)": {
        "details": "Returns the admin role that controls `role`. See {grantRole} and {revokeRole}. To change a role's admin, use {_setRoleAdmin}."
      },
      "grantRole(bytes32,address)": {
        "details": "Grants `role` to `account`. If `account` had not been already granted `role`, emits a {RoleGranted} event. Requirements: - the caller must have ``role``'s admin role."
      },
      "hasRole(bytes32,address)": {
        "details": "Returns `true` if `account` has been granted `role`."
      },
      "increaseAllowance(address,uint256)": {
        "details": "Atomically increases the allowance granted to `spender` by the caller. This is an alternative to {approve} that can be used as a mitigation for problems described in {IERC20-approve}. Emits an {Approval} event indicating the updated allowance. Requirements: - `spender` cannot be the zero address."
      },
      "name()": {
        "details": "Returns the name of the token."
      },
      "renounceRole(bytes32,address)": {
        "details": "Revokes `role` from the calling account. Roles are often managed via {grantRole} and {revokeRole}: this function's purpose is to provide a mechanism for accounts to lose their privileges if they are compromised (such as when a trusted device is misplaced). If the calling account had been revoked `role`, emits a {RoleRevoked} event. Requirements: - the caller must be `account`."
      },
      "revokeRole(bytes32,address)": {
        "details": "Revokes `role` from `account`. If `account` had been granted `role`, emits a {RoleRevoked} event. Requirements: - the caller must have ``role``'s admin role."
      },
      "supportsInterface(bytes4)": {
        "details": "See {IERC165-supportsInterface}."
      },
      "symbol()": {
        "details": "Returns the symbol of the token, usually a shorter version of the name."
      },
      "totalSupply()": {
        "details": "See {IERC20-totalSupply}."
      },
      "transfer(address,uint256)": {
        "details": "See {IERC20-transfer}. Requirements: - `to` cannot be the zero address. - the caller must have a balance of at least `amount`."
      },
      "transferFrom(address,address,uint256)": {
        "details": "See {IERC20-transferFrom}. Emits an {Approval} event indicating the updated allowance. This is not required by the EIP. See the note at the beginning of {ERC20}. NOTE: Does not update the allowance if the current allowance is the maximum `uint256`. Requirements: - `from` and `to` cannot be the zero address. - `from` must have a balance of at least `amount`. - the caller must have allowance for ``from``'s tokens of at least `amount`."
      }
    },
    "version": 1
  },
  "userdoc": {
    "kind": "user",
    "methods": {},
    "version": 1
  }
}