{
  "contractName": "Swap",
  "abi": [
    {
      "inputs": [
        {
          "internalType": "address",
          "name": "addr0",
          "type": "address"
        },
        {
          "internalType": "address",
          "name": "addr1",
          "type": "address"
        }
      ],
      "stateMutability": "nonpayable",
      "type": "constructor"
    },
    {
      "anonymous": false,
      "inputs": [
        {
          "indexed": true,
          "internalType": "address",
          "name": "previousOwner",
          "type": "address"
        },
        {
          "indexed": true,
          "internalType": "address",
          "name": "newOwner",
          "type": "address"
        }
      ],
      "name": "OwnershipTransferred",
      "type": "event"
    },
    {
      "inputs": [],
      "name": "owner",
      "outputs": [
        {
          "internalType": "address",
          "name": "",
          "type": "address"
        }
      ],
      "stateMutability": "view",
      "type": "function",
      "constant": true
    },
    {
      "inputs": [],
      "name": "renounceOwnership",
      "outputs": [],
      "stateMutability": "nonpayable",
      "type": "function"
    },
    {
      "inputs": [],
      "name": "totalShares",
      "outputs": [
        {
          "internalType": "uint256",
          "name": "",
          "type": "uint256"
        }
      ],
      "stateMutability": "view",
      "type": "function",
      "constant": true
    },
    {
      "inputs": [
        {
          "internalType": "address",
          "name": "newOwner",
          "type": "address"
        }
      ],
      "name": "transferOwnership",
      "outputs": [],
      "stateMutability": "nonpayable",
      "type": "function"
    },
    {
      "inputs": [
        {
          "internalType": "uint256",
          "name": "token0Amount",
          "type": "uint256"
        },
        {
          "internalType": "uint256",
          "name": "token1Amount",
          "type": "uint256"
        }
      ],
      "name": "init",
      "outputs": [],
      "stateMutability": "nonpayable",
      "type": "function"
    },
    {
      "inputs": [],
      "name": "getReserves",
      "outputs": [
        {
          "internalType": "uint256",
          "name": "",
          "type": "uint256"
        },
        {
          "internalType": "uint256",
          "name": "",
          "type": "uint256"
        }
      ],
      "stateMutability": "view",
      "type": "function",
      "constant": true
    },
    {
      "inputs": [],
      "name": "getTokens",
      "outputs": [
        {
          "internalType": "address",
          "name": "",
          "type": "address"
        },
        {
          "internalType": "address",
          "name": "",
          "type": "address"
        }
      ],
      "stateMutability": "view",
      "type": "function",
      "constant": true
    },
    {
      "inputs": [
        {
          "internalType": "address",
          "name": "LP",
          "type": "address"
        }
      ],
      "name": "getShares",
      "outputs": [
        {
          "internalType": "uint256",
          "name": "",
          "type": "uint256"
        }
      ],
      "stateMutability": "view",
      "type": "function",
      "constant": true
    },
    {
      "inputs": [],
      "name": "getTS",
      "outputs": [
        {
          "internalType": "uint256",
          "name": "",
          "type": "uint256"
        }
      ],
      "stateMutability": "view",
      "type": "function",
      "constant": true
    },
    {
      "inputs": [
        {
          "internalType": "uint256",
          "name": "token0Amount",
          "type": "uint256"
        }
      ],
      "name": "addLiquidity",
      "outputs": [],
      "stateMutability": "nonpayable",
      "type": "function"
    },
    {
      "inputs": [
        {
          "internalType": "uint256",
          "name": "token0Amount",
          "type": "uint256"
        }
      ],
      "name": "token0To1",
      "outputs": [],
      "stateMutability": "nonpayable",
      "type": "function"
    },
    {
      "inputs": [
        {
          "internalType": "uint256",
          "name": "token1Amount",
          "type": "uint256"
        }
      ],
      "name": "token1To0",
      "outputs": [],
      "stateMutability": "nonpayable",
      "type": "function"
    },
    {
      "inputs": [
        {
          "internalType": "uint256",
          "name": "withdrawShares",
          "type": "uint256"
        }
      ],
      "name": "removeLiquidity",
      "outputs": [],
      "stateMutability": "nonpayable",
      "type": "function"
    }
  ],
  "bytecode": "0x60806040523480156200001157600080fd5b5060405162002474380380620024748339818101604052810190620000379190620001c4565b620000576200004b620000e160201b60201c565b620000e960201b60201c565b81600160006101000a81548173ffffffffffffffffffffffffffffffffffffffff021916908373ffffffffffffffffffffffffffffffffffffffff16021790555080600260006101000a81548173ffffffffffffffffffffffffffffffffffffffff021916908373ffffffffffffffffffffffffffffffffffffffff16021790555050506200025e565b600033905090565b60008060009054906101000a900473ffffffffffffffffffffffffffffffffffffffff169050816000806101000a81548173ffffffffffffffffffffffffffffffffffffffff021916908373ffffffffffffffffffffffffffffffffffffffff1602179055508173ffffffffffffffffffffffffffffffffffffffff168173ffffffffffffffffffffffffffffffffffffffff167f8be0079c531659141344cd1fd0a4f28419497f9722a3daafe3b4186f6b6457e060405160405180910390a35050565b600081519050620001be8162000244565b92915050565b60008060408385031215620001de57620001dd6200023f565b5b6000620001ee85828601620001ad565b92505060206200020185828601620001ad565b9150509250929050565b600062000218826200021f565b9050919050565b600073ffffffffffffffffffffffffffffffffffffffff82169050919050565b600080fd5b6200024f816200020b565b81146200025b57600080fd5b50565b612206806200026e6000396000f3fe608060405234801561001057600080fd5b50600436106100cf5760003560e01c80638da5cb5b1161008c578063aa6ca80811610066578063aa6ca808146101c7578063ad3bd45c146101e6578063f04da65b14610202578063f2fde38b14610232576100cf565b80638da5cb5b146101715780639c8f9f231461018f578063a5843f08146101ab576100cf565b80630902f1ac146100d45780630b85aa84146100f357806326ef80c9146101115780633a98ef391461012d57806351c6590a1461014b578063715018a614610167575b600080fd5b6100dc61024e565b6040516100ea929190611c00565b60405180910390f35b6100fb61025f565b6040516101089190611be5565b60405180910390f35b61012b6004803603810190610126919061174f565b610269565b005b61013561058c565b6040516101429190611be5565b60405180910390f35b6101656004803603810190610160919061174f565b610592565b005b61016f6108b8565b005b610179610940565b60405161018691906119a1565b60405180910390f35b6101a960048036038101906101a4919061174f565b610969565b005b6101c560048036038101906101c0919061177c565b610db7565b005b6101cf6110bb565b6040516101dd9291906119bc565b60405180910390f35b61020060048036038101906101fb919061174f565b61110c565b005b61021c600480360381019061021791906116f5565b61142f565b6040516102299190611be5565b60405180910390f35b61024c600480360381019061024791906116f5565b611478565b005b600080600354600454915091509091565b6000600654905090565b60008110156102ad576040517f08c379a00000000000000000000000000000000000000000000000000000000081526004016102a490611b05565b60405180910390fd5b6000600354116102f2576040517f08c379a00000000000000000000000000000000000000000000000000000000081526004016102e990611b85565b60405180910390fd5b600060045411610337576040517f08c379a000000000000000000000000000000000000000000000000000000000815260040161032e90611a45565b60405180910390fd5b600060036103e8836103499190611c90565b6103539190611cc1565b9050600081836103639190611d1b565b90506000816003546103759190611c3a565b6004546003546103859190611cc1565b61038f9190611c90565b60045461039c9190611d1b565b905060045481106103e2576040517f08c379a00000000000000000000000000000000000000000000000000000000081526004016103d990611a85565b60405180910390fd5b83600360008282546103f49190611c3a565b92505081905550806004600082825461040d9190611d1b565b92505081905550600160009054906101000a900473ffffffffffffffffffffffffffffffffffffffff1673ffffffffffffffffffffffffffffffffffffffff166323b872dd3330876040518463ffffffff1660e01b8152600401610473939291906119e5565b602060405180830381600087803b15801561048d57600080fd5b505af11580156104a1573d6000803e3d6000fd5b505050506040513d601f19601f820116820180604052508101906104c59190611722565b6104ce57600080fd5b600260009054906101000a900473ffffffffffffffffffffffffffffffffffffffff1673ffffffffffffffffffffffffffffffffffffffff1663a9059cbb33836040518363ffffffff1660e01b815260040161052b929190611a1c565b602060405180830381600087803b15801561054557600080fd5b505af1158015610559573d6000803e3d6000fd5b505050506040513d601f19601f8201168201806040525081019061057d9190611722565b61058657600080fd5b50505050565b60065481565b60008110156105d6576040517f08c379a00000000000000000000000000000000000000000000000000000000081526004016105cd90611b05565b60405180910390fd5b60006003541161061b576040517f08c379a000000000000000000000000000000000000000000000000000000000815260040161061290611b85565b60405180910390fd5b600060045411610660576040517f08c379a000000000000000000000000000000000000000000000000000000000815260040161065790611a45565b60405180910390fd5b6000600354826004546106739190611cc1565b61067d9190611c90565b90506000600354836006546106929190611cc1565b61069c9190611c90565b905080600560003373ffffffffffffffffffffffffffffffffffffffff1673ffffffffffffffffffffffffffffffffffffffff16815260200190815260200160002060008282546106ed9190611c3a565b9250508190555082600360008282546107069190611c3a565b92505081905550816004600082825461071f9190611c3a565b9250508190555080600660008282546107389190611c3a565b92505081905550600160009054906101000a900473ffffffffffffffffffffffffffffffffffffffff1673ffffffffffffffffffffffffffffffffffffffff166323b872dd3330866040518463ffffffff1660e01b815260040161079e939291906119e5565b602060405180830381600087803b1580156107b857600080fd5b505af11580156107cc573d6000803e3d6000fd5b505050506040513d601f19601f820116820180604052508101906107f09190611722565b6107f957600080fd5b600260009054906101000a900473ffffffffffffffffffffffffffffffffffffffff1673ffffffffffffffffffffffffffffffffffffffff166323b872dd3330856040518463ffffffff1660e01b8152600401610858939291906119e5565b602060405180830381600087803b15801561087257600080fd5b505af1158015610886573d6000803e3d6000fd5b505050506040513d601f19601f820116820180604052508101906108aa9190611722565b6108b357600080fd5b505050565b6108c0611570565b73ffffffffffffffffffffffffffffffffffffffff166108de610940565b73ffffffffffffffffffffffffffffffffffffffff1614610934576040517f08c379a000000000000000000000000000000000000000000000000000000000815260040161092b90611b25565b60405180910390fd5b61093e6000611578565b565b60008060009054906101000a900473ffffffffffffffffffffffffffffffffffffffff16905090565b6000600354116109ae576040517f08c379a00000000000000000000000000000000000000000000000000000000081526004016109a590611b85565b60405180910390fd5b6000600454116109f3576040517f08c379a00000000000000000000000000000000000000000000000000000000081526004016109ea90611a45565b60405180910390fd5b6000811015610a37576040517f08c379a0000000000000000000000000000000000000000000000000000000008152600401610a2e90611b45565b60405180910390fd5b80600560003373ffffffffffffffffffffffffffffffffffffffff1673ffffffffffffffffffffffffffffffffffffffff168152602001908152602001600020541015610ab9576040517f08c379a0000000000000000000000000000000000000000000000000000000008152600401610ab090611b45565b60405180910390fd5b600060065482600354610acc9190611cc1565b610ad69190611c90565b9050600060065483600454610aeb9190611cc1565b610af59190611c90565b9050600354821115610b3c576040517f08c379a0000000000000000000000000000000000000000000000000000000008152600401610b3390611ae5565b60405180910390fd5b600454811115610b81576040517f08c379a0000000000000000000000000000000000000000000000000000000008152600401610b7890611b65565b60405180910390fd5b600060035483600654610b949190611cc1565b610b9e9190611c90565b905080600560003373ffffffffffffffffffffffffffffffffffffffff1673ffffffffffffffffffffffffffffffffffffffff1681526020019081526020016000206000828254610bef9190611d1b565b925050819055508260036000828254610c089190611d1b565b925050819055508160046000828254610c219190611d1b565b925050819055508060066000828254610c3a9190611d1b565b92505081905550600160009054906101000a900473ffffffffffffffffffffffffffffffffffffffff1673ffffffffffffffffffffffffffffffffffffffff1663a9059cbb33856040518363ffffffff1660e01b8152600401610c9e929190611a1c565b602060405180830381600087803b158015610cb857600080fd5b505af1158015610ccc573d6000803e3d6000fd5b505050506040513d601f19601f82011682018060405250810190610cf09190611722565b610cf957600080fd5b600260009054906101000a900473ffffffffffffffffffffffffffffffffffffffff1673ffffffffffffffffffffffffffffffffffffffff1663a9059cbb33846040518363ffffffff1660e01b8152600401610d56929190611a1c565b602060405180830381600087803b158015610d7057600080fd5b505af1158015610d84573d6000803e3d6000fd5b505050506040513d601f19601f82011682018060405250810190610da89190611722565b610db157600080fd5b50505050565b610dbf611570565b73ffffffffffffffffffffffffffffffffffffffff16610ddd610940565b73ffffffffffffffffffffffffffffffffffffffff1614610e33576040517f08c379a0000000000000000000000000000000000000000000000000000000008152600401610e2a90611b25565b60405180910390fd5b6000600354148015610e4757506000600454145b610e86576040517f08c379a0000000000000000000000000000000000000000000000000000000008152600401610e7d90611bc5565b60405180910390fd5b600082118015610e965750600081115b610ed5576040517f08c379a0000000000000000000000000000000000000000000000000000000008152600401610ecc90611aa5565b60405180910390fd5b600160009054906101000a900473ffffffffffffffffffffffffffffffffffffffff1673ffffffffffffffffffffffffffffffffffffffff166323b872dd3330856040518463ffffffff1660e01b8152600401610f34939291906119e5565b602060405180830381600087803b158015610f4e57600080fd5b505af1158015610f62573d6000803e3d6000fd5b505050506040513d601f19601f82011682018060405250810190610f869190611722565b610f8f57600080fd5b600260009054906101000a900473ffffffffffffffffffffffffffffffffffffffff1673ffffffffffffffffffffffffffffffffffffffff166323b872dd3330846040518463ffffffff1660e01b8152600401610fee939291906119e5565b602060405180830381600087803b15801561100857600080fd5b505af115801561101c573d6000803e3d6000fd5b505050506040513d601f19601f820116820180604052508101906110409190611722565b61104957600080fd5b816003819055508060048190555061106b81836110669190611cc1565b61163c565b600681905550600654600560003373ffffffffffffffffffffffffffffffffffffffff1673ffffffffffffffffffffffffffffffffffffffff168152602001908152602001600020819055505050565b600080600160009054906101000a900473ffffffffffffffffffffffffffffffffffffffff16600260009054906101000a900473ffffffffffffffffffffffffffffffffffffffff16915091509091565b6000811015611150576040517f08c379a000000000000000000000000000000000000000000000000000000000815260040161114790611ba5565b60405180910390fd5b600060035411611195576040517f08c379a000000000000000000000000000000000000000000000000000000000815260040161118c90611b85565b60405180910390fd5b6000600454116111da576040517f08c379a00000000000000000000000000000000000000000000000000000000081526004016111d190611a45565b60405180910390fd5b600060036103e8836111ec9190611c90565b6111f69190611cc1565b9050600081836112069190611d1b565b90506000816004546112189190611c3a565b6004546003546112289190611cc1565b6112329190611c90565b60035461123f9190611d1b565b90506003548110611285576040517f08c379a000000000000000000000000000000000000000000000000000000000815260040161127c90611ac5565b60405180910390fd5b83600460008282546112979190611c3a565b9250508190555080600360008282546112b09190611d1b565b92505081905550600160009054906101000a900473ffffffffffffffffffffffffffffffffffffffff1673ffffffffffffffffffffffffffffffffffffffff1663a9059cbb33836040518363ffffffff1660e01b8152600401611314929190611a1c565b602060405180830381600087803b15801561132e57600080fd5b505af1158015611342573d6000803e3d6000fd5b505050506040513d601f19601f820116820180604052508101906113669190611722565b61136f57600080fd5b600260009054906101000a900473ffffffffffffffffffffffffffffffffffffffff1673ffffffffffffffffffffffffffffffffffffffff166323b872dd3330876040518463ffffffff1660e01b81526004016113ce939291906119e5565b602060405180830381600087803b1580156113e857600080fd5b505af11580156113fc573d6000803e3d6000fd5b505050506040513d601f19601f820116820180604052508101906114209190611722565b61142957600080fd5b50505050565b6000600560008373ffffffffffffffffffffffffffffffffffffffff1673ffffffffffffffffffffffffffffffffffffffff168152602001908152602001600020549050919050565b611480611570565b73ffffffffffffffffffffffffffffffffffffffff1661149e610940565b73ffffffffffffffffffffffffffffffffffffffff16146114f4576040517f08c379a00000000000000000000000000000000000000000000000000000000081526004016114eb90611b25565b60405180910390fd5b600073ffffffffffffffffffffffffffffffffffffffff168173ffffffffffffffffffffffffffffffffffffffff161415611564576040517f08c379a000000000000000000000000000000000000000000000000000000000815260040161155b90611a65565b60405180910390fd5b61156d81611578565b50565b600033905090565b60008060009054906101000a900473ffffffffffffffffffffffffffffffffffffffff169050816000806101000a81548173ffffffffffffffffffffffffffffffffffffffff021916908373ffffffffffffffffffffffffffffffffffffffff1602179055508173ffffffffffffffffffffffffffffffffffffffff168173ffffffffffffffffffffffffffffffffffffffff167f8be0079c531659141344cd1fd0a4f28419497f9722a3daafe3b4186f6b6457e060405160405180910390a35050565b600060038211156116a3578190506000600160028461165b9190611c90565b6116659190611c3a565b90505b8181101561169d5780915060028182856116829190611c90565b61168c9190611c3a565b6116969190611c90565b9050611668565b506116b1565b600082146116b057600190505b5b919050565b6000813590506116c58161218b565b92915050565b6000815190506116da816121a2565b92915050565b6000813590506116ef816121b9565b92915050565b60006020828403121561170b5761170a611df5565b5b6000611719848285016116b6565b91505092915050565b60006020828403121561173857611737611df5565b5b6000611746848285016116cb565b91505092915050565b60006020828403121561176557611764611df5565b5b6000611773848285016116e0565b91505092915050565b6000806040838503121561179357611792611df5565b5b60006117a1858286016116e0565b92505060206117b2858286016116e0565b9150509250929050565b6117c581611d4f565b82525050565b60006117d8602383611c29565b91506117e382611dfa565b604082019050919050565b60006117fb602683611c29565b915061180682611e49565b604082019050919050565b600061181e603083611c29565b915061182982611e98565b604082019050919050565b6000611841601d83611c29565b915061184c82611ee7565b602082019050919050565b6000611864603083611c29565b915061186f82611f10565b604082019050919050565b6000611887602783611c29565b915061189282611f5f565b604082019050919050565b60006118aa602783611c29565b91506118b582611fae565b604082019050919050565b60006118cd602083611c29565b91506118d882611ffd565b602082019050919050565b60006118f0602983611c29565b91506118fb82612026565b604082019050919050565b6000611913602783611c29565b915061191e82612075565b604082019050919050565b6000611936602383611c29565b9150611941826120c4565b604082019050919050565b6000611959602783611c29565b915061196482612113565b604082019050919050565b600061197c601c83611c29565b915061198782612162565b602082019050919050565b61199b81611d8d565b82525050565b60006020820190506119b660008301846117bc565b92915050565b60006040820190506119d160008301856117bc565b6119de60208301846117bc565b9392505050565b60006060820190506119fa60008301866117bc565b611a0760208301856117bc565b611a146040830184611992565b949350505050565b6000604082019050611a3160008301856117bc565b611a3e6020830184611992565b9392505050565b60006020820190508181036000830152611a5e816117cb565b9050919050565b60006020820190508181036000830152611a7e816117ee565b9050919050565b60006020820190508181036000830152611a9e81611811565b9050919050565b60006020820190508181036000830152611abe81611834565b9050919050565b60006020820190508181036000830152611ade81611857565b9050919050565b60006020820190508181036000830152611afe8161187a565b9050919050565b60006020820190508181036000830152611b1e8161189d565b9050919050565b60006020820190508181036000830152611b3e816118c0565b9050919050565b60006020820190508181036000830152611b5e816118e3565b9050919050565b60006020820190508181036000830152611b7e81611906565b9050919050565b60006020820190508181036000830152611b9e81611929565b9050919050565b60006020820190508181036000830152611bbe8161194c565b9050919050565b60006020820190508181036000830152611bde8161196f565b9050919050565b6000602082019050611bfa6000830184611992565b92915050565b6000604082019050611c156000830185611992565b611c226020830184611992565b9392505050565b600082825260208201905092915050565b6000611c4582611d8d565b9150611c5083611d8d565b9250827fffffffffffffffffffffffffffffffffffffffffffffffffffffffffffffffff03821115611c8557611c84611d97565b5b828201905092915050565b6000611c9b82611d8d565b9150611ca683611d8d565b925082611cb657611cb5611dc6565b5b828204905092915050565b6000611ccc82611d8d565b9150611cd783611d8d565b9250817fffffffffffffffffffffffffffffffffffffffffffffffffffffffffffffffff0483118215151615611d1057611d0f611d97565b5b828202905092915050565b6000611d2682611d8d565b9150611d3183611d8d565b925082821015611d4457611d43611d97565b5b828203905092915050565b6000611d5a82611d6d565b9050919050565b60008115159050919050565b600073ffffffffffffffffffffffffffffffffffffffff82169050919050565b6000819050919050565b7f4e487b7100000000000000000000000000000000000000000000000000000000600052601160045260246000fd5b7f4e487b7100000000000000000000000000000000000000000000000000000000600052601260045260246000fd5b600080fd5b7f72657365727665312073686f756c64206265206c6172676572207468616e207a60008201527f65726f0000000000000000000000000000000000000000000000000000000000602082015250565b7f4f776e61626c653a206e6577206f776e657220697320746865207a65726f206160008201527f6464726573730000000000000000000000000000000000000000000000000000602082015250565b7f746f6b656e315f746f5f72657475726e2073686f756c6420626520736d616c6c60008201527f6572207468616e20726573657276653100000000000000000000000000000000602082015250565b7f696e6974202d20626f746820746f6b656e7320617265206e6565646564000000600082015250565b7f746f6b656e305f746f5f72657475726e2073686f756c6420626520736d616c6c60008201527f6572207468616e20726573657276653000000000000000000000000000000000602082015250565b7f616d6f756e74302073686f756c6420626520736d616c6c6572207468616e207260008201527f6573657276653000000000000000000000000000000000000000000000000000602082015250565b7f746f6b656e30416d6f756e742073686f756c64206265206c617267657220746860008201527f616e207a65726f00000000000000000000000000000000000000000000000000602082015250565b7f4f776e61626c653a2063616c6c6572206973206e6f7420746865206f776e6572600082015250565b7f77697468647261775368617265732073686f756c64206265206c61726765722060008201527f7468616e207a65726f0000000000000000000000000000000000000000000000602082015250565b7f616d6f756e74312073686f756c6420626520736d616c6c6572207468616e207260008201527f6573657276653100000000000000000000000000000000000000000000000000602082015250565b7f72657365727665302073686f756c64206265206c6172676572207468616e207a60008201527f65726f0000000000000000000000000000000000000000000000000000000000602082015250565b7f746f6b656e31416d6f756e742073686f756c64206265206c617267657220746860008201527f616e207a65726f00000000000000000000000000000000000000000000000000602082015250565b7f696e6974202d20616c726561647920686173206c697175696469747900000000600082015250565b61219481611d4f565b811461219f57600080fd5b50565b6121ab81611d61565b81146121b657600080fd5b50565b6121c281611d8d565b81146121cd57600080fd5b5056fea264697066735822122044a39167a5ba2e4c8608bae295e2be86331bead7d2a464863cbdb1e43f42abbc64736f6c63430008070033",
  "immutableReferences": {},
  "source": "// SPDX-License-Identifier: MIT\npragma solidity >=0.8.0 <0.9.0;\nimport \"@openzeppelin/contracts/access/Ownable.sol\";\nimport \"./interfaces/ISwap.sol\";\nimport \"./sAsset.sol\";\n\ncontract Swap is Ownable, ISwap {\n\n    address token0;\n    address token1;\n    uint reserve0;\n    uint reserve1;\n    mapping (address => uint) shares;\n    uint public totalShares;\n\n    constructor(address addr0, address addr1) {\n        token0 = addr0;\n        token1 = addr1;\n    }\n\n    function init(uint token0Amount, uint token1Amount) external override onlyOwner {\n        require(reserve0 == 0 && reserve1 == 0, \"init - already has liquidity\");\n        require(token0Amount > 0 && token1Amount > 0, \"init - both tokens are needed\");\n\n        require(sAsset(token0).transferFrom(msg.sender, address(this), token0Amount));\n        require(sAsset(token1).transferFrom(msg.sender, address(this), token1Amount));\n        reserve0 = token0Amount;\n        reserve1 = token1Amount;\n        totalShares = sqrt(token0Amount * token1Amount);\n        shares[msg.sender] = totalShares;\n    }\n\n    // https://github.com/Uniswap/v2-core/blob/v1.0.1/contracts/libraries/Math.sol\n    function sqrt(uint y) internal pure returns (uint z) {\n        if (y > 3) {\n            z = y;\n            uint x = y / 2 + 1;\n            while (x < z) {\n                z = x;\n                x = (y / x + x) / 2;\n            }\n        } else if (y != 0) {\n            z = 1;\n        }\n    }\n\n    function getReserves() external view returns (uint, uint) {\n        return (reserve0, reserve1);\n    }\n\n    function getTokens() external view returns (address, address) {\n        return (token0, token1);\n    }\n\n    function getShares(address LP) external view returns (uint) {\n        return shares[LP];\n    }\n\n    /* TODO: implement your functions here */\n\n    function getTS()  external view returns (uint) {\n        return totalShares;\n    }\n\n    function addLiquidity(uint token0Amount) external override {\n        require(token0Amount >= 0, \"token0Amount should be larger than zero\");\n        require(reserve0 > 0, \"reserve0 should be larger than zero\");\n        require(reserve1 > 0, \"reserve1 should be larger than zero\");\n        \n        uint256 token1Amount =  reserve1 * token0Amount / reserve0;\n        uint256 new_shares =  totalShares * token0Amount / reserve0;\n        shares[msg.sender] += new_shares;\n        reserve0 += token0Amount;\n        reserve1 += token1Amount;\n        totalShares += new_shares;\n        require(sAsset(token0).transferFrom(msg.sender, address(this), token0Amount));\n        require(sAsset(token1).transferFrom(msg.sender, address(this), token1Amount));\n    }\n\n    function token0To1(uint token0Amount) external override {\n        require(token0Amount >= 0, \"token0Amount should be larger than zero\");\n        require(reserve0 > 0, \"reserve0 should be larger than zero\");\n        require(reserve1 > 0, \"reserve1 should be larger than zero\");\n        // uint token0_to_exchange = token0Amount * 997;\n        uint256 protocol_fee = token0Amount / 1000  * 3;\n        uint256 token0_to_exchange = token0Amount - protocol_fee;\n        uint256 token1_to_return = reserve1 - reserve0 * reserve1 / (reserve0 + token0_to_exchange);\n        require(token1_to_return < reserve1, \"token1_to_return should be smaller than reserve1\");\n        //uint token1_to_return = reserve1 - totalShares / (reserve0 + token0_to_exchange);\n        // reserve0 += token0_to_exchange;\n        reserve0 += token0Amount;\n        reserve1 -= token1_to_return;\n        // totalShares = sqrt(reserve0 * reserve1);\n        //  shares shares\n        // token0token1 shares\n        //shares[msg.sender] = totalShares * (shares[msg.sender] + token0Amount) / reserve0;\n\n        require(sAsset(token0).transferFrom(msg.sender, address(this), token0Amount));\n        require(sAsset(token1).transfer(msg.sender, token1_to_return));\n    }\n\n    function token1To0(uint token1Amount) external override {\n        require(token1Amount >= 0, \"token1Amount should be larger than zero\");\n        require(reserve0 > 0, \"reserve0 should be larger than zero\");\n        require(reserve1 > 0, \"reserve1 should be larger than zero\");\n        // uint token1_to_exchange = token1Amount * 997;\n        uint256 protocol_fee = token1Amount / 1000  * 3;\n        uint256 token1_to_exchange = token1Amount - protocol_fee;\n        uint256 token0_to_return = reserve0 - reserve0 * reserve1 / (reserve1 + token1_to_exchange);\n        require(token0_to_return < reserve0, \"token0_to_return should be smaller than reserve0\");\n        reserve1 += token1Amount;\n        reserve0 -= token0_to_return;\n        // totalShares = sqrt(reserve0 * reserve1);\n        //shares[msg.sender] = totalShares * (shares[msg.sender] + token1Amount) / reserve1;\n        require(sAsset(token0).transfer(msg.sender, token0_to_return));\n        require(sAsset(token1).transferFrom(msg.sender, address(this), token1Amount));\n    }\n\n    function removeLiquidity(uint withdrawShares) external override {\n        require(reserve0 > 0, \"reserve0 should be larger than zero\");\n        require(reserve1 > 0, \"reserve1 should be larger than zero\");\n        require(withdrawShares >= 0, \"withdrawShares should be larger than zero\");\n        require(shares[msg.sender] >= withdrawShares, \"withdrawShares should be larger than zero\");\n        // uint amount0 = reserve0 * withdrawShares / totalShares;\n        // uint amount1 = reserve1 * withdrawShares / totalShares;\n        // uint new_shares = totalShares * amount0 / reserve0;\n\n\n\n        // uint256 amount0 = reserve0 * withdrawShares / totalShares;\n        // uint256 amount1 = reserve1 * withdrawShares / totalShares;\n        // require(amount0 < reserve0, \"amount0 should be smaller than reserve0\");\n        // require(amount1 < reserve1, \"amount1 should be smaller than reserve1\");\n        // reserve0 -= amount0;\n        // reserve1 -= amount1;\n        // shares[msg.sender] -= withdrawShares;\n        // require(sAsset(token0).transfer(msg.sender, amount0));\n        // require(sAsset(token1).transfer(msg.sender, amount1));\n\n\n        uint amount0 = reserve0 * withdrawShares / totalShares;\n        uint amount1 = reserve1 * withdrawShares / totalShares;\n        require(amount0 <= reserve0, \"amount0 should be smaller than reserve0\");\n        require(amount1 <= reserve1, \"amount1 should be smaller than reserve1\");\n        uint new_shares = totalShares * amount0 / reserve0;\n        shares[msg.sender] -= new_shares;\n        reserve0 -= amount0;\n        reserve1 -= amount1;\n        totalShares -= new_shares;\n        require(sAsset(token0).transfer(msg.sender, amount0));\n        require(sAsset(token1).transfer(msg.sender, amount1));\n    }\n}",
  "sourcePath": "C:\\Users\\ashstarry\\Desktop\\ece598\\FinalDemo\\contracts\\Swap.sol",
  "compiler": {
    "name": "solc",
    "version": "0.8.7+commit.e28d00a7.Emscripten.clang"
  },
  "schemaVersion": "3.4.7",
  "updatedAt": "2022-05-08T20:05:27.331Z",
  "networkType": "ethereum",
  "devdoc": {
    "kind": "dev",
    "methods": {
      "owner()": {
        "details": "Returns the address of the current owner."
      },
      "renounceOwnership()": {
        "details": "Leaves the contract without owner. It will not be possible to call `onlyOwner` functions anymore. Can only be called by the current owner. NOTE: Renouncing ownership will leave the contract without an owner, thereby removing any functionality that is only available to the owner."
      },
      "transferOwnership(address)": {
        "details": "Transfers ownership of the contract to a new account (`newOwner`). Can only be called by the current owner."
      }
    },
    "version": 1
  },
  "userdoc": {
    "kind": "user",
    "methods": {},
    "version": 1
  }
}